{
    "_format": "hh-sol-artifact-1",
    "contractName": "Arbiter",
    "sourceName": "contracts/Arbiter.sol",
    "abi": [
        {
            "inputs": [
                {
                    "internalType": "address",
                    "name": "_manager",
                    "type": "address"
                }
            ],
            "stateMutability": "nonpayable",
            "type": "constructor"
        },
        {
            "inputs": [],
            "name": "obligationManager",
            "outputs": [
                {
                    "internalType": "address",
                    "name": "",
                    "type": "address"
                }
            ],
            "stateMutability": "view",
            "type": "function"
        },
        {
            "inputs": [],
            "name": "owner",
            "outputs": [
                {
                    "internalType": "address",
                    "name": "",
                    "type": "address"
                }
            ],
            "stateMutability": "view",
            "type": "function"
        },
        {
            "inputs": [
                {
                    "internalType": "address",
                    "name": "newManager",
                    "type": "address"
                }
            ],
            "name": "updateManager",
            "outputs": [],
            "stateMutability": "nonpayable",
            "type": "function"
        },
        {
            "inputs": [
                {
                    "internalType": "string",
                    "name": "cid",
                    "type": "string"
                },
                {
                    "internalType": "bool",
                    "name": "proofValid",
                    "type": "bool"
                },
                {
                    "internalType": "bool",
                    "name": "timelyRetrieved",
                    "type": "bool"
                }
            ],
            "name": "verifyFilecoinProof",
            "outputs": [],
            "stateMutability": "nonpayable",
            "type": "function"
        }
    ],
    "bytecode": "0x608060405234801561001057600080fd5b506040516103ed3803806103ed83398101604081905261002f9161005d565b600080546001600160a01b039092166001600160a01b0319928316179055600180549091163317905561008d565b60006020828403121561006f57600080fd5b81516001600160a01b038116811461008657600080fd5b9392505050565b6103518061009c6000396000f3fe608060405234801561001057600080fd5b506004361061004c5760003560e01c8063267b044014610051578063558b22001461006657806358aba00f146100955780638da5cb5b146100a8575b600080fd5b61006461005f36600461021d565b6100bb565b005b600054610079906001600160a01b031681565b6040516001600160a01b03909116815260200160405180910390f35b6100646100a33660046102af565b610197565b600154610079906001600160a01b031681565b6001546001600160a01b0316331461010f5760405162461bcd60e51b815260206004820152601260248201527113db9b1e481bdddb995c88185b1b1bddd95960721b60448201526064015b60405180910390fd5b600082801561011b5750815b610126576002610129565b60015b6000546040516329b0b4c160e11b81529192506001600160a01b03169063536169829061015e908890889086906004016102df565b600060405180830381600087803b15801561017857600080fd5b505af115801561018c573d6000803e3d6000fd5b505050505050505050565b6001546001600160a01b031633146101e65760405162461bcd60e51b815260206004820152601260248201527113db9b1e481bdddb995c88185b1b1bddd95960721b6044820152606401610106565b600080546001600160a01b0319166001600160a01b0392909216919091179055565b8035801515811461021857600080fd5b919050565b6000806000806060858703121561023357600080fd5b843567ffffffffffffffff8082111561024b57600080fd5b818701915087601f83011261025f57600080fd5b81358181111561026e57600080fd5b88602082850101111561028057600080fd5b6020928301965094506102969187019050610208565b91506102a460408601610208565b905092959194509250565b6000602082840312156102c157600080fd5b81356001600160a01b03811681146102d857600080fd5b9392505050565b604081528260408201528284606083013760006060848301015260006060601f19601f860116830101905060ff8316602083015294935050505056fea2646970667358221220fa16cbe323420b787f2900daef7c296a7e4d272cfae195041bef0408b5df93ed64736f6c63430008140033",
    "linkReferences": {},
    "deployedLinkReferences": {}
}