{
    "_format": "hh-sol-artifact-1",
    "contractName": "ObligationManager",
    "sourceName": "contracts/ObligationManager.sol",
    "abi": [
        {
            "inputs": [
                {
                    "internalType": "address",
                    "name": "_arbiter",
                    "type": "address"
                }
            ],
            "stateMutability": "nonpayable",
            "type": "constructor"
        },
        {
            "anonymous": false,
            "inputs": [
                {
                    "indexed": false,
                    "internalType": "string",
                    "name": "cid",
                    "type": "string"
                },
                {
                    "indexed": false,
                    "internalType": "address",
                    "name": "provider",
                    "type": "address"
                },
                {
                    "indexed": false,
                    "internalType": "uint256",
                    "name": "duration",
                    "type": "uint256"
                },
                {
                    "indexed": false,
                    "internalType": "uint256",
                    "name": "redundancy",
                    "type": "uint256"
                },
                {
                    "indexed": false,
                    "internalType": "uint256",
                    "name": "retrievalSpeed",
                    "type": "uint256"
                }
            ],
            "name": "ObligationCreated",
            "type": "event"
        },
        {
            "anonymous": false,
            "inputs": [
                {
                    "indexed": false,
                    "internalType": "string",
                    "name": "cid",
                    "type": "string"
                },
                {
                    "indexed": false,
                    "internalType": "enum ObligationManager.Status",
                    "name": "status",
                    "type": "uint8"
                }
            ],
            "name": "ObligationUpdated",
            "type": "event"
        },
        {
            "inputs": [],
            "name": "arbiter",
            "outputs": [
                {
                    "internalType": "address",
                    "name": "",
                    "type": "address"
                }
            ],
            "stateMutability": "view",
            "type": "function"
        },
        {
            "inputs": [
                {
                    "internalType": "string",
                    "name": "cid",
                    "type": "string"
                },
                {
                    "internalType": "address",
                    "name": "provider",
                    "type": "address"
                },
                {
                    "internalType": "uint256",
                    "name": "duration",
                    "type": "uint256"
                },
                {
                    "internalType": "uint256",
                    "name": "redundancy",
                    "type": "uint256"
                },
                {
                    "internalType": "uint256",
                    "name": "retrievalSpeed",
                    "type": "uint256"
                }
            ],
            "name": "createObligation",
            "outputs": [],
            "stateMutability": "nonpayable",
            "type": "function"
        },
        {
            "inputs": [
                {
                    "internalType": "string",
                    "name": "",
                    "type": "string"
                }
            ],
            "name": "obligations",
            "outputs": [
                {
                    "internalType": "string",
                    "name": "cid",
                    "type": "string"
                },
                {
                    "internalType": "address",
                    "name": "provider",
                    "type": "address"
                },
                {
                    "internalType": "uint256",
                    "name": "startTime",
                    "type": "uint256"
                },
                {
                    "internalType": "uint256",
                    "name": "duration",
                    "type": "uint256"
                },
                {
                    "internalType": "uint256",
                    "name": "redundancy",
                    "type": "uint256"
                },
                {
                    "internalType": "uint256",
                    "name": "retrievalSpeed",
                    "type": "uint256"
                },
                {
                    "internalType": "enum ObligationManager.Status",
                    "name": "status",
                    "type": "uint8"
                }
            ],
            "stateMutability": "view",
            "type": "function"
        },
        {
            "inputs": [],
            "name": "owner",
            "outputs": [
                {
                    "internalType": "address",
                    "name": "",
                    "type": "address"
                }
            ],
            "stateMutability": "view",
            "type": "function"
        },
        {
            "inputs": [
                {
                    "internalType": "uint256",
                    "name": "minDuration",
                    "type": "uint256"
                },
                {
                    "internalType": "uint256",
                    "name": "maxDuration",
                    "type": "uint256"
                },
                {
                    "internalType": "uint256",
                    "name": "minRedundancy",
                    "type": "uint256"
                },
                {
                    "internalType": "uint256",
                    "name": "maxRetrievalSpeed",
                    "type": "uint256"
                }
            ],
            "name": "setSLARequirements",
            "outputs": [],
            "stateMutability": "nonpayable",
            "type": "function"
        },
        {
            "inputs": [],
            "name": "slaRequirements",
            "outputs": [
                {
                    "internalType": "uint256",
                    "name": "minDuration",
                    "type": "uint256"
                },
                {
                    "internalType": "uint256",
                    "name": "maxDuration",
                    "type": "uint256"
                },
                {
                    "internalType": "uint256",
                    "name": "minRedundancy",
                    "type": "uint256"
                },
                {
                    "internalType": "uint256",
                    "name": "maxRetrievalSpeed",
                    "type": "uint256"
                }
            ],
            "stateMutability": "view",
            "type": "function"
        },
        {
            "inputs": [
                {
                    "internalType": "string",
                    "name": "cid",
                    "type": "string"
                },
                {
                    "internalType": "enum ObligationManager.Status",
                    "name": "newStatus",
                    "type": "uint8"
                }
            ],
            "name": "updateStatus",
            "outputs": [],
            "stateMutability": "nonpayable",
            "type": "function"
        }
    ],
    "bytecode": "0x608060405234801561001057600080fd5b50604051610c40380380610c4083398101604081905261002f9161005d565b600580546001600160a01b039092166001600160a01b0319928316179055600680549091163317905561008d565b60006020828403121561006f57600080fd5b81516001600160a01b038116811461008657600080fd5b9392505050565b610ba48061009c6000396000f3fe608060405234801561001057600080fd5b506004361061007d5760003560e01c80638da5cb5b1161005b5780638da5cb5b146100d9578063a95a7f3314610104578063c8d3a47514610117578063fe25e00a1461014d57600080fd5b80630eb56d4e146100825780631f36f2fe1461009757806353616982146100c6575b600080fd5b6100956100903660046106e6565b610160565b005b6100aa6100a53660046107bb565b6101e8565b6040516100bd9796959493929190610880565b60405180910390f35b6100956100d43660046108d4565b6102c5565b6006546100ec906001600160a01b031681565b6040516001600160a01b0390911681526020016100bd565b61009561011236600461092a565b610406565b60005460015460025460035461012d9392919084565b6040805194855260208501939093529183015260608201526080016100bd565b6005546100ec906001600160a01b031681565b6006546001600160a01b031633146101b45760405162461bcd60e51b815260206004820152601260248201527113db9b1e481bdddb995c88185b1b1bddd95960721b60448201526064015b60405180910390fd5b6040805160808101825285815260208101859052908101839052606001819052600093909355600191909155600255600355565b805160208183018101805160048252928201919093012091528054819061020e906109a0565b80601f016020809104026020016040519081016040528092919081815260200182805461023a906109a0565b80156102875780601f1061025c57610100808354040283529160200191610287565b820191906000526020600020905b81548152906001019060200180831161026a57829003601f168201915b5050506001840154600285015460038601546004870154600588015460069098015496976001600160a01b0390941696929550909350919060ff1687565b6005546001600160a01b031633146103165760405162461bcd60e51b815260206004820152601460248201527313db9b1e48185c989a5d195c88185b1b1bddd95960621b60448201526064016101ab565b60048260405161032691906109da565b9081526020016040518091039020600201546000036103875760405162461bcd60e51b815260206004820152601960248201527f4f626c69676174696f6e20646f6573206e6f742065786973740000000000000060448201526064016101ab565b8060048360405161039891906109da565b908152604051908190036020019020600601805460ff191660018360038111156103c4576103c4610848565b02179055507fb4e55eaf3be8efc628751f8e2da94e16bf2ad26b805a461c4769958bd24b842c82826040516103fa9291906109f6565b60405180910390a15050565b60048560405161041691906109da565b9081526020016040518091039020600201546000146104775760405162461bcd60e51b815260206004820152601960248201527f4f626c69676174696f6e20616c7265616479206578697374730000000000000060448201526064016101ab565b6000548310156104be5760405162461bcd60e51b8152602060048201526012602482015271111d5c985d1a5bdb881d1bdbc81cda1bdc9d60721b60448201526064016101ab565b6001548311156105045760405162461bcd60e51b81526020600482015260116024820152704475726174696f6e20746f6f206c6f6e6760781b60448201526064016101ab565b60025482101561054b5760405162461bcd60e51b8152602060048201526012602482015271526564756e64616e637920746f6f206c6f7760701b60448201526064016101ab565b60035481111561059d5760405162461bcd60e51b815260206004820152601860248201527f52657472696576616c20737065656420746f6f20736c6f77000000000000000060448201526064016101ab565b6040518060e00160405280868152602001856001600160a01b03168152602001428152602001848152602001838152602001828152602001600060038111156105e8576105e8610848565b8152506004866040516105fb91906109da565b908152604051908190036020019020815181906106189082610a6e565b5060208201518160010160006101000a8154816001600160a01b0302191690836001600160a01b0316021790555060408201518160020155606082015181600301556080820151816004015560a0820151816005015560c08201518160060160006101000a81548160ff0219169083600381111561069857610698610848565b02179055509050507fbc6b3b3fd53d42801c9505d99f6948b688ac6d7451ee4627a3722d4c0e57a42185858585856040516106d7959493929190610b2e565b60405180910390a15050505050565b600080600080608085870312156106fc57600080fd5b5050823594602084013594506040840135936060013592509050565b634e487b7160e01b600052604160045260246000fd5b600082601f83011261073f57600080fd5b813567ffffffffffffffff8082111561075a5761075a610718565b604051601f8301601f19908116603f0116810190828211818310171561078257610782610718565b8160405283815286602085880101111561079b57600080fd5b836020870160208301376000602085830101528094505050505092915050565b6000602082840312156107cd57600080fd5b813567ffffffffffffffff8111156107e457600080fd5b6107f08482850161072e565b949350505050565b60005b838110156108135781810151838201526020016107fb565b50506000910152565b600081518084526108348160208601602086016107f8565b601f01601f19169290920160200192915050565b634e487b7160e01b600052602160045260246000fd5b6004811061087c57634e487b7160e01b600052602160045260246000fd5b9052565b60e08152600061089360e083018a61081c565b905060018060a01b03881660208301528660408301528560608301528460808301528360a08301526108c860c083018461085e565b98975050505050505050565b600080604083850312156108e757600080fd5b823567ffffffffffffffff8111156108fe57600080fd5b61090a8582860161072e565b92505060208301356004811061091f57600080fd5b809150509250929050565b600080600080600060a0868803121561094257600080fd5b853567ffffffffffffffff81111561095957600080fd5b6109658882890161072e565b95505060208601356001600160a01b038116811461098257600080fd5b94979496505050506040830135926060810135926080909101359150565b600181811c908216806109b457607f821691505b6020821081036109d457634e487b7160e01b600052602260045260246000fd5b50919050565b600082516109ec8184602087016107f8565b9190910192915050565b604081526000610a09604083018561081c565b9050610a18602083018461085e565b9392505050565b601f821115610a6957600081815260208120601f850160051c81016020861015610a465750805b601f850160051c820191505b81811015610a6557828155600101610a52565b5050505b505050565b815167ffffffffffffffff811115610a8857610a88610718565b610a9c81610a9684546109a0565b84610a1f565b602080601f831160018114610ad15760008415610ab95750858301515b600019600386901b1c1916600185901b178555610a65565b600085815260208120601f198616915b82811015610b0057888601518255948401946001909101908401610ae1565b5085821015610b1e5787850151600019600388901b60f8161c191681555b5050505050600190811b01905550565b60a081526000610b4160a083018861081c565b6001600160a01b03969096166020830152506040810193909352606083019190915260809091015291905056fea2646970667358221220010507bd8b318fcb0840023f3a64c2e943f20d81475dc1a0151f6f7166c1cd5164736f6c63430008140033",
    "linkReferences": {},
    "deployedLinkReferences": {}
}