{"contracts/DataSet.sol":{"DataSet":{"abi":[{"anonymous":false,"inputs":[{"indexed":true,"internalType":"string","name":"cid","type":"string"},{"indexed":true,"internalType":"address","name":"owner","type":"address"},{"indexed":false,"internalType":"string","name":"name","type":"string"},{"indexed":false,"internalType":"string","name":"fileName","type":"string"},{"indexed":false,"internalType":"uint256","name":"fileSize","type":"uint256"},{"indexed":false,"internalType":"string","name":"domain","type":"string"},{"indexed":false,"internalType":"string","name":"license","type":"string"},{"indexed":false,"internalType":"string","name":"access","type":"string"},{"indexed":false,"internalType":"string","name":"visibility","type":"string"}],"name":"MetadataStored","type":"event"},{"anonymous":false,"inputs":[{"indexed":true,"internalType":"string","name":"cid","type":"string"},{"indexed":true,"internalType":"address","name":"updater","type":"address"},{"indexed":false,"internalType":"string","name":"name","type":"string"},{"indexed":false,"internalType":"string","name":"fileName","type":"string"},{"indexed":false,"internalType":"uint256","name":"fileSize","type":"uint256"},{"indexed":false,"internalType":"string","name":"domain","type":"string"},{"indexed":false,"internalType":"string","name":"license","type":"string"},{"indexed":false,"internalType":"string","name":"access","type":"string"},{"indexed":false,"internalType":"string","name":"visibility","type":"string"}],"name":"MetadataUpdated","type":"event"},{"inputs":[{"internalType":"uint256","name":"page","type":"uint256"},{"internalType":"uint256","name":"pageSize","type":"uint256"}],"name":"getAllMetadata","outputs":[{"components":[{"internalType":"string","name":"cid","type":"string"},{"internalType":"string","name":"name","type":"string"},{"internalType":"string","name":"fileName","type":"string"},{"internalType":"uint256","name":"fileSize","type":"uint256"},{"internalType":"string","name":"domain","type":"string"},{"internalType":"string","name":"license","type":"string"},{"internalType":"string","name":"access","type":"string"},{"internalType":"string","name":"visibility","type":"string"},{"internalType":"uint256","name":"createdAt","type":"uint256"},{"internalType":"uint256","name":"updatedAt","type":"uint256"}],"internalType":"struct DataSet.Metadata[]","name":"","type":"tuple[]"}],"stateMutability":"view","type":"function"},{"inputs":[{"internalType":"string","name":"visibility","type":"string"}],"name":"getCountByVisibility","outputs":[{"internalType":"uint256","name":"","type":"uint256"}],"stateMutability":"view","type":"function"},{"inputs":[{"internalType":"string","name":"visibility","type":"string"},{"internalType":"uint256","name":"page","type":"uint256"},{"internalType":"uint256","name":"pageSize","type":"uint256"}],"name":"getMetadataByVisibility","outputs":[{"components":[{"internalType":"string","name":"cid","type":"string"},{"internalType":"string","name":"name","type":"string"},{"internalType":"string","name":"fileName","type":"string"},{"internalType":"uint256","name":"fileSize","type":"uint256"},{"internalType":"string","name":"domain","type":"string"},{"internalType":"string","name":"license","type":"string"},{"internalType":"string","name":"access","type":"string"},{"internalType":"string","name":"visibility","type":"string"},{"internalType":"uint256","name":"createdAt","type":"uint256"},{"internalType":"uint256","name":"updatedAt","type":"uint256"}],"internalType":"struct DataSet.Metadata[]","name":"","type":"tuple[]"}],"stateMutability":"view","type":"function"},{"inputs":[],"name":"getTotalDatasetCount","outputs":[{"internalType":"uint256","name":"","type":"uint256"}],"stateMutability":"view","type":"function"},{"inputs":[{"internalType":"string","name":"cid","type":"string"},{"internalType":"string","name":"name","type":"string"},{"internalType":"string","name":"fileName","type":"string"},{"internalType":"uint256","name":"fileSize","type":"uint256"},{"internalType":"string","name":"domain","type":"string"},{"internalType":"string","name":"license","type":"string"},{"internalType":"string","name":"access","type":"string"},{"internalType":"string","name":"visibility","type":"string"}],"name":"storeMetadata","outputs":[],"stateMutability":"nonpayable","type":"function"}],"evm":{"bytecode":{"linkReferences":{},"object":"608060405234801561001057600080fd5b50611c25806100206000396000f3fe608060405234801561001057600080fd5b50600436106100575760003560e01c806363fd3b271461005c57806378f67f80146100855780637f1371b41461009a578063ac504677146100bb578063f225d922146100ce575b600080fd5b61006f61006a3660046115b8565b6100d6565b60405161007c9190611656565b60405180910390f35b610098610093366004611785565b610992565b005b6100ad6100a83660046118aa565b610d8a565b60405190815260200161007c565b61006f6100c93660046118e7565b610e94565b6003546100ad565b60606000821180156100e9575060648211155b61012e5760405162461bcd60e51b8152602060048201526011602482015270496e76616c696420706167652073697a6560781b60448201526064015b60405180910390fd5b61015684604051806040016040528060068152602001657075626c696360d01b815250611469565b80610185575061018584604051806040016040528060078152602001667072697661746560c81b815250611469565b806101b757506101b7846040518060400160405280600a8152602001691c995cdd1c9a58dd195960b21b815250611469565b6102035760405162461bcd60e51b815260206004820152601a60248201527f496e76616c6964207669736962696c6974792073657474696e670000000000006044820152606401610125565b6000805b600354811015610305576102e060006003838154811061022957610229611909565b906000526020600020016040516102409190611959565b9081526020016040518091039020600701805461025c9061191f565b80601f01602080910402602001604051908101604052809291908181526020018280546102889061191f565b80156102d55780601f106102aa576101008083540402835291602001916102d5565b820191906000526020600020905b8154815290600101906020018083116102b857829003601f168201915b505050505087611469565b156102f357816102ef816119e5565b9250505b806102fd816119e5565b915050610207565b50600061031284866119fe565b905081811061035657604080516000808252602082019092529061034c565b6103396114c2565b8152602001906001900390816103315790505b509250505061098b565b60006103628583611a15565b90508281111561036f5750815b600061037b8383611a28565b67ffffffffffffffff81111561039357610393611515565b6040519080825280602002602001820160405280156103cc57816020015b6103b96114c2565b8152602001906001900390816103b15790505b50905060008060005b600354811080156103e65750835182105b15610981576104ba60006003838154811061040357610403611909565b9060005260206000200160405161041a9190611959565b908152602001604051809103902060070180546104369061191f565b80601f01602080910402602001604051908101604052809291908181526020018280546104629061191f565b80156104af5780601f10610484576101008083540402835291602001916104af565b820191906000526020600020905b81548152906001019060200180831161049257829003601f168201915b50505050508c611469565b1561096f578583101580156104ce57508483105b15610961576000600382815481106104e8576104e8611909565b906000526020600020016040516104ff9190611959565b9081526020016040518091039020604051806101400160405290816000820180546105299061191f565b80601f01602080910402602001604051908101604052809291908181526020018280546105559061191f565b80156105a25780601f10610577576101008083540402835291602001916105a2565b820191906000526020600020905b81548152906001019060200180831161058557829003601f168201915b505050505081526020016001820180546105bb9061191f565b80601f01602080910402602001604051908101604052809291908181526020018280546105e79061191f565b80156106345780601f1061060957610100808354040283529160200191610634565b820191906000526020600020905b81548152906001019060200180831161061757829003601f168201915b5050505050815260200160028201805461064d9061191f565b80601f01602080910402602001604051908101604052809291908181526020018280546106799061191f565b80156106c65780601f1061069b576101008083540402835291602001916106c6565b820191906000526020600020905b8154815290600101906020018083116106a957829003601f168201915b50505050508152602001600382015481526020016004820180546106e99061191f565b80601f01602080910402602001604051908101604052809291908181526020018280546107159061191f565b80156107625780601f1061073757610100808354040283529160200191610762565b820191906000526020600020905b81548152906001019060200180831161074557829003601f168201915b5050505050815260200160058201805461077b9061191f565b80601f01602080910402602001604051908101604052809291908181526020018280546107a79061191f565b80156107f45780601f106107c9576101008083540402835291602001916107f4565b820191906000526020600020905b8154815290600101906020018083116107d757829003601f168201915b5050505050815260200160068201805461080d9061191f565b80601f01602080910402602001604051908101604052809291908181526020018280546108399061191f565b80156108865780601f1061085b57610100808354040283529160200191610886565b820191906000526020600020905b81548152906001019060200180831161086957829003601f168201915b5050505050815260200160078201805461089f9061191f565b80601f01602080910402602001604051908101604052809291908181526020018280546108cb9061191f565b80156109185780601f106108ed57610100808354040283529160200191610918565b820191906000526020600020905b8154815290600101906020018083116108fb57829003601f168201915b505050505081526020016008820154815260200160098201548152505084838151811061094757610947611909565b6020026020010181905250818061095d906119e5565b9250505b8261096b816119e5565b9350505b80610979816119e5565b9150506103d5565b5091955050505050505b9392505050565b60008851116109d95760405162461bcd60e51b81526020600482015260136024820152724349442063616e6e6f7420626520656d70747960681b6044820152606401610125565b6000886040516109e99190611a3b565b9081526040519081900360200190208054610a039061191f565b159050610a475760405162461bcd60e51b815260206004820152601260248201527143494420616c72656164792065786973747360701b6044820152606401610125565b60008511610a975760405162461bcd60e51b815260206004820181905260248201527f46696c652073697a65206d7573742062652067726561746572207468616e20306044820152606401610125565b610abf81604051806040016040528060068152602001657075626c696360d01b815250611469565b80610aee5750610aee81604051806040016040528060078152602001667072697661746560c81b815250611469565b80610b205750610b20816040518060400160405280600a8152602001691c995cdd1c9a58dd195960b21b815250611469565b610b6c5760405162461bcd60e51b815260206004820152601a60248201527f496e76616c6964207669736962696c6974792073657474696e670000000000006044820152606401610125565b60405180610140016040528089815260200188815260200187815260200186815260200185815260200184815260200183815260200182815260200142815260200142815250600089604051610bc29190611a3b565b90815260405190819003602001902081518190610bdf9082611aa6565b5060208201516001820190610bf49082611aa6565b5060408201516002820190610c099082611aa6565b506060820151600382015560808201516004820190610c289082611aa6565b5060a08201516005820190610c3d9082611aa6565b5060c08201516006820190610c529082611aa6565b5060e08201516007820190610c679082611aa6565b506101008201518160080155610120820151816009015590505033600189604051610c929190611a3b565b908152604080516020928190038301902080546001600160a01b0319166001600160a01b039490941693909317909255336000908152600282529182208054600181018255908352912001610ce78982611aa6565b50600380546001810182556000919091527fc2575a0e9e593c00f959f8c92f12db2869c3395a3b0502d05e2516446f71f85b01610d248982611aa6565b506040513390610d35908a90611a3b565b60405180910390207f9c47abde8cbe4775904a34bbf85eb2d02226b30a174d31a51d590694147cfb5e89898989898989604051610d789796959493929190611b66565b60405180910390a35050505050505050565b600080805b600354811015610e8d57610e68600060038381548110610db157610db1611909565b90600052602060002001604051610dc89190611959565b90815260200160405180910390206007018054610de49061191f565b80601f0160208091040260200160405190810160405280929190818152602001828054610e109061191f565b8015610e5d5780601f10610e3257610100808354040283529160200191610e5d565b820191906000526020600020905b815481529060010190602001808311610e4057829003601f168201915b505050505085611469565b15610e7b5781610e77816119e5565b9250505b80610e85816119e5565b915050610d8f565b5092915050565b6060600082118015610ea7575060648211155b610ee75760405162461bcd60e51b8152602060048201526011602482015270496e76616c696420706167652073697a6560781b6044820152606401610125565b6000610ef383856119fe565b6003549091508110610f39576040805160008082526020820190925290610f30565b610f1d6114c2565b815260200190600190039081610f155790505b50915050611463565b6000610f458483611a15565b600354909150811115610f5757506003545b6000610f638383611a28565b67ffffffffffffffff811115610f7b57610f7b611515565b604051908082528060200260200182016040528015610fb457816020015b610fa16114c2565b815260200190600190039081610f995790505b509050825b8281101561145d57600060038281548110610fd657610fd6611909565b90600052602060002001604051610fed9190611959565b9081526020016040518091039020604051806101400160405290816000820180546110179061191f565b80601f01602080910402602001604051908101604052809291908181526020018280546110439061191f565b80156110905780601f1061106557610100808354040283529160200191611090565b820191906000526020600020905b81548152906001019060200180831161107357829003601f168201915b505050505081526020016001820180546110a99061191f565b80601f01602080910402602001604051908101604052809291908181526020018280546110d59061191f565b80156111225780601f106110f757610100808354040283529160200191611122565b820191906000526020600020905b81548152906001019060200180831161110557829003601f168201915b5050505050815260200160028201805461113b9061191f565b80601f01602080910402602001604051908101604052809291908181526020018280546111679061191f565b80156111b45780601f10611189576101008083540402835291602001916111b4565b820191906000526020600020905b81548152906001019060200180831161119757829003601f168201915b50505050508152602001600382015481526020016004820180546111d79061191f565b80601f01602080910402602001604051908101604052809291908181526020018280546112039061191f565b80156112505780601f1061122557610100808354040283529160200191611250565b820191906000526020600020905b81548152906001019060200180831161123357829003601f168201915b505050505081526020016005820180546112699061191f565b80601f01602080910402602001604051908101604052809291908181526020018280546112959061191f565b80156112e25780601f106112b7576101008083540402835291602001916112e2565b820191906000526020600020905b8154815290600101906020018083116112c557829003601f168201915b505050505081526020016006820180546112fb9061191f565b80601f01602080910402602001604051908101604052809291908181526020018280546113279061191f565b80156113745780601f1061134957610100808354040283529160200191611374565b820191906000526020600020905b81548152906001019060200180831161135757829003601f168201915b5050505050815260200160078201805461138d9061191f565b80601f01602080910402602001604051908101604052809291908181526020018280546113b99061191f565b80156114065780601f106113db57610100808354040283529160200191611406565b820191906000526020600020905b8154815290600101906020018083116113e957829003601f168201915b5050509183525050600882015460208201526009909101546040909101528261142f8684611a28565b8151811061143f5761143f611909565b60200260200101819052508080611455906119e5565b915050610fb9565b50925050505b92915050565b60008160405160200161147c9190611a3b565b60405160208183030381529060405280519060200120836040516020016114a39190611a3b565b6040516020818303038152906040528051906020012014905092915050565b604051806101400160405280606081526020016060815260200160608152602001600081526020016060815260200160608152602001606081526020016060815260200160008152602001600081525090565b634e487b7160e01b600052604160045260246000fd5b600082601f83011261153c57600080fd5b813567ffffffffffffffff8082111561155757611557611515565b604051601f8301601f19908116603f0116810190828211818310171561157f5761157f611515565b8160405283815286602085880101111561159857600080fd5b836020870160208301376000602085830101528094505050505092915050565b6000806000606084860312156115cd57600080fd5b833567ffffffffffffffff8111156115e457600080fd5b6115f08682870161152b565b9660208601359650604090950135949350505050565b60005b83811015611621578181015183820152602001611609565b50506000910152565b60008151808452611642816020860160208601611606565b601f01601f19169290920160200192915050565b60006020808301818452808551808352604092508286019150828160051b87010184880160005b8381101561177757603f19898403018552815161014081518186526116a48287018261162a565b915050888201518582038a8701526116bc828261162a565b91505087820151858203898701526116d4828261162a565b9150506060808301518187015250608080830151868303828801526116f9838261162a565b9250505060a08083015186830382880152611714838261162a565b9250505060c0808301518683038288015261172f838261162a565b9250505060e0808301518683038288015261174a838261162a565b6101008581015190890152610120948501519490970193909352505050938601939086019060010161167d565b509098975050505050505050565b600080600080600080600080610100898b0312156117a257600080fd5b883567ffffffffffffffff808211156117ba57600080fd5b6117c68c838d0161152b565b995060208b01359150808211156117dc57600080fd5b6117e88c838d0161152b565b985060408b01359150808211156117fe57600080fd5b61180a8c838d0161152b565b975060608b0135965060808b013591508082111561182757600080fd5b6118338c838d0161152b565b955060a08b013591508082111561184957600080fd5b6118558c838d0161152b565b945060c08b013591508082111561186b57600080fd5b6118778c838d0161152b565b935060e08b013591508082111561188d57600080fd5b5061189a8b828c0161152b565b9150509295985092959890939650565b6000602082840312156118bc57600080fd5b813567ffffffffffffffff8111156118d357600080fd5b6118df8482850161152b565b949350505050565b600080604083850312156118fa57600080fd5b50508035926020909101359150565b634e487b7160e01b600052603260045260246000fd5b600181811c9082168061193357607f821691505b60208210810361195357634e487b7160e01b600052602260045260246000fd5b50919050565b60008083546119678161191f565b6001828116801561197f5760018114611994576119c3565b60ff19841687528215158302870194506119c3565b8760005260208060002060005b858110156119ba5781548a8201529084019082016119a1565b50505082870194505b50929695505050505050565b634e487b7160e01b600052601160045260246000fd5b6000600182016119f7576119f76119cf565b5060010190565b8082028115828204841417611463576114636119cf565b80820180821115611463576114636119cf565b81810381811115611463576114636119cf565b60008251611a4d818460208701611606565b9190910192915050565b601f821115611aa157600081815260208120601f850160051c81016020861015611a7e5750805b601f850160051c820191505b81811015611a9d57828155600101611a8a565b5050505b505050565b815167ffffffffffffffff811115611ac057611ac0611515565b611ad481611ace845461191f565b84611a57565b602080601f831160018114611b095760008415611af15750858301515b600019600386901b1c1916600185901b178555611a9d565b600085815260208120601f198616915b82811015611b3857888601518255948401946001909101908401611b19565b5085821015611b565787850151600019600388901b60f8161c191681555b5050505050600190811b01905550565b60e081526000611b7960e083018a61162a565b8281036020840152611b8b818a61162a565b90508760408401528281036060840152611ba5818861162a565b90508281036080840152611bb9818761162a565b905082810360a0840152611bcd818661162a565b905082810360c0840152611be1818561162a565b9a995050505050505050505056fea2646970667358221220bee5aedf2aab190e8567c5d04a513daf19a2f31ee4fe4db89e0296a33f8af05e64736f6c63430008140033","opcodes":"PUSH1 0x80 PUSH1 0x40 MSTORE CALLVALUE DUP1 ISZERO PUSH2 0x10 JUMPI PUSH1 0x0 DUP1 REVERT JUMPDEST POP PUSH2 0x1C25 DUP1 PUSH2 0x20 PUSH1 0x0 CODECOPY PUSH1 0x0 RETURN INVALID PUSH1 0x80 PUSH1 0x40 MSTORE CALLVALUE DUP1 ISZERO PUSH2 0x10 JUMPI PUSH1 0x0 DUP1 REVERT JUMPDEST POP PUSH1 0x4 CALLDATASIZE LT PUSH2 0x57 JUMPI PUSH1 0x0 CALLDATALOAD PUSH1 0xE0 SHR DUP1 PUSH4 0x63FD3B27 EQ PUSH2 0x5C JUMPI DUP1 PUSH4 0x78F67F80 EQ PUSH2 0x85 JUMPI DUP1 PUSH4 0x7F1371B4 EQ PUSH2 0x9A JUMPI DUP1 PUSH4 0xAC504677 EQ PUSH2 0xBB JUMPI DUP1 PUSH4 0xF225D922 EQ PUSH2 0xCE JUMPI JUMPDEST PUSH1 0x0 DUP1 REVERT JUMPDEST PUSH2 0x6F PUSH2 0x6A CALLDATASIZE PUSH1 0x4 PUSH2 0x15B8 JUMP JUMPDEST PUSH2 0xD6 JUMP JUMPDEST PUSH1 0x40 MLOAD PUSH2 0x7C SWAP2 SWAP1 PUSH2 0x1656 JUMP JUMPDEST PUSH1 0x40 MLOAD DUP1 SWAP2 SUB SWAP1 RETURN JUMPDEST PUSH2 0x98 PUSH2 0x93 CALLDATASIZE PUSH1 0x4 PUSH2 0x1785 JUMP JUMPDEST PUSH2 0x992 JUMP JUMPDEST STOP JUMPDEST PUSH2 0xAD PUSH2 0xA8 CALLDATASIZE PUSH1 0x4 PUSH2 0x18AA JUMP JUMPDEST PUSH2 0xD8A JUMP JUMPDEST PUSH1 0x40 MLOAD SWAP1 DUP2 MSTORE PUSH1 0x20 ADD PUSH2 0x7C JUMP JUMPDEST PUSH2 0x6F PUSH2 0xC9 CALLDATASIZE PUSH1 0x4 PUSH2 0x18E7 JUMP JUMPDEST PUSH2 0xE94 JUMP JUMPDEST PUSH1 0x3 SLOAD PUSH2 0xAD JUMP JUMPDEST PUSH1 0x60 PUSH1 0x0 DUP3 GT DUP1 ISZERO PUSH2 0xE9 JUMPI POP PUSH1 0x64 DUP3 GT ISZERO JUMPDEST PUSH2 0x12E JUMPI PUSH1 0x40 MLOAD PUSH3 0x461BCD PUSH1 0xE5 SHL DUP2 MSTORE PUSH1 0x20 PUSH1 0x4 DUP3 ADD MSTORE PUSH1 0x11 PUSH1 0x24 DUP3 ADD MSTORE PUSH17 0x496E76616C696420706167652073697A65 PUSH1 0x78 SHL PUSH1 0x44 DUP3 ADD MSTORE PUSH1 0x64 ADD JUMPDEST PUSH1 0x40 MLOAD DUP1 SWAP2 SUB SWAP1 REVERT JUMPDEST PUSH2 0x156 DUP5 PUSH1 0x40 MLOAD DUP1 PUSH1 0x40 ADD PUSH1 0x40 MSTORE DUP1 PUSH1 0x6 DUP2 MSTORE PUSH1 0x20 ADD PUSH6 0x7075626C6963 PUSH1 0xD0 SHL DUP2 MSTORE POP PUSH2 0x1469 JUMP JUMPDEST DUP1 PUSH2 0x185 JUMPI POP PUSH2 0x185 DUP5 PUSH1 0x40 MLOAD DUP1 PUSH1 0x40 ADD PUSH1 0x40 MSTORE DUP1 PUSH1 0x7 DUP2 MSTORE PUSH1 0x20 ADD PUSH7 0x70726976617465 PUSH1 0xC8 SHL DUP2 MSTORE POP PUSH2 0x1469 JUMP JUMPDEST DUP1 PUSH2 0x1B7 JUMPI POP PUSH2 0x1B7 DUP5 PUSH1 0x40 MLOAD DUP1 PUSH1 0x40 ADD PUSH1 0x40 MSTORE DUP1 PUSH1 0xA DUP2 MSTORE PUSH1 0x20 ADD PUSH10 0x1C995CDD1C9A58DD1959 PUSH1 0xB2 SHL DUP2 MSTORE POP PUSH2 0x1469 JUMP JUMPDEST PUSH2 0x203 JUMPI PUSH1 0x40 MLOAD PUSH3 0x461BCD PUSH1 0xE5 SHL DUP2 MSTORE PUSH1 0x20 PUSH1 0x4 DUP3 ADD MSTORE PUSH1 0x1A PUSH1 0x24 DUP3 ADD MSTORE PUSH32 0x496E76616C6964207669736962696C6974792073657474696E67000000000000 PUSH1 0x44 DUP3 ADD MSTORE PUSH1 0x64 ADD PUSH2 0x125 JUMP JUMPDEST PUSH1 0x0 DUP1 JUMPDEST PUSH1 0x3 SLOAD DUP2 LT ISZERO PUSH2 0x305 JUMPI PUSH2 0x2E0 PUSH1 0x0 PUSH1 0x3 DUP4 DUP2 SLOAD DUP2 LT PUSH2 0x229 JUMPI PUSH2 0x229 PUSH2 0x1909 JUMP JUMPDEST SWAP1 PUSH1 0x0 MSTORE PUSH1 0x20 PUSH1 0x0 KECCAK256 ADD PUSH1 0x40 MLOAD PUSH2 0x240 SWAP2 SWAP1 PUSH2 0x1959 JUMP JUMPDEST SWAP1 DUP2 MSTORE PUSH1 0x20 ADD PUSH1 0x40 MLOAD DUP1 SWAP2 SUB SWAP1 KECCAK256 PUSH1 0x7 ADD DUP1 SLOAD PUSH2 0x25C SWAP1 PUSH2 0x191F JUMP JUMPDEST DUP1 PUSH1 0x1F ADD PUSH1 0x20 DUP1 SWAP2 DIV MUL PUSH1 0x20 ADD PUSH1 0x40 MLOAD SWAP1 DUP2 ADD PUSH1 0x40 MSTORE DUP1 SWAP3 SWAP2 SWAP1 DUP2 DUP2 MSTORE PUSH1 0x20 ADD DUP3 DUP1 SLOAD PUSH2 0x288 SWAP1 PUSH2 0x191F JUMP JUMPDEST DUP1 ISZERO PUSH2 0x2D5 JUMPI DUP1 PUSH1 0x1F LT PUSH2 0x2AA JUMPI PUSH2 0x100 DUP1 DUP4 SLOAD DIV MUL DUP4 MSTORE SWAP2 PUSH1 0x20 ADD SWAP2 PUSH2 0x2D5 JUMP JUMPDEST DUP3 ADD SWAP2 SWAP1 PUSH1 0x0 MSTORE PUSH1 0x20 PUSH1 0x0 KECCAK256 SWAP1 JUMPDEST DUP2 SLOAD DUP2 MSTORE SWAP1 PUSH1 0x1 ADD SWAP1 PUSH1 0x20 ADD DUP1 DUP4 GT PUSH2 0x2B8 JUMPI DUP3 SWAP1 SUB PUSH1 0x1F AND DUP3 ADD SWAP2 JUMPDEST POP POP POP POP POP DUP8 PUSH2 0x1469 JUMP JUMPDEST ISZERO PUSH2 0x2F3 JUMPI DUP2 PUSH2 0x2EF DUP2 PUSH2 0x19E5 JUMP JUMPDEST SWAP3 POP POP JUMPDEST DUP1 PUSH2 0x2FD DUP2 PUSH2 0x19E5 JUMP JUMPDEST SWAP2 POP POP PUSH2 0x207 JUMP JUMPDEST POP PUSH1 0x0 PUSH2 0x312 DUP5 DUP7 PUSH2 0x19FE JUMP JUMPDEST SWAP1 POP DUP2 DUP2 LT PUSH2 0x356 JUMPI PUSH1 0x40 DUP1 MLOAD PUSH1 0x0 DUP1 DUP3 MSTORE PUSH1 0x20 DUP3 ADD SWAP1 SWAP3 MSTORE SWAP1 PUSH2 0x34C JUMP JUMPDEST PUSH2 0x339 PUSH2 0x14C2 JUMP JUMPDEST DUP2 MSTORE PUSH1 0x20 ADD SWAP1 PUSH1 0x1 SWAP1 SUB SWAP1 DUP2 PUSH2 0x331 JUMPI SWAP1 POP JUMPDEST POP SWAP3 POP POP POP PUSH2 0x98B JUMP JUMPDEST PUSH1 0x0 PUSH2 0x362 DUP6 DUP4 PUSH2 0x1A15 JUMP JUMPDEST SWAP1 POP DUP3 DUP2 GT ISZERO PUSH2 0x36F JUMPI POP DUP2 JUMPDEST PUSH1 0x0 PUSH2 0x37B DUP4 DUP4 PUSH2 0x1A28 JUMP JUMPDEST PUSH8 0xFFFFFFFFFFFFFFFF DUP2 GT ISZERO PUSH2 0x393 JUMPI PUSH2 0x393 PUSH2 0x1515 JUMP JUMPDEST PUSH1 0x40 MLOAD SWAP1 DUP1 DUP3 MSTORE DUP1 PUSH1 0x20 MUL PUSH1 0x20 ADD DUP3 ADD PUSH1 0x40 MSTORE DUP1 ISZERO PUSH2 0x3CC JUMPI DUP2 PUSH1 0x20 ADD JUMPDEST PUSH2 0x3B9 PUSH2 0x14C2 JUMP JUMPDEST DUP2 MSTORE PUSH1 0x20 ADD SWAP1 PUSH1 0x1 SWAP1 SUB SWAP1 DUP2 PUSH2 0x3B1 JUMPI SWAP1 POP JUMPDEST POP SWAP1 POP PUSH1 0x0 DUP1 PUSH1 0x0 JUMPDEST PUSH1 0x3 SLOAD DUP2 LT DUP1 ISZERO PUSH2 0x3E6 JUMPI POP DUP4 MLOAD DUP3 LT JUMPDEST ISZERO PUSH2 0x981 JUMPI PUSH2 0x4BA PUSH1 0x0 PUSH1 0x3 DUP4 DUP2 SLOAD DUP2 LT PUSH2 0x403 JUMPI PUSH2 0x403 PUSH2 0x1909 JUMP JUMPDEST SWAP1 PUSH1 0x0 MSTORE PUSH1 0x20 PUSH1 0x0 KECCAK256 ADD PUSH1 0x40 MLOAD PUSH2 0x41A SWAP2 SWAP1 PUSH2 0x1959 JUMP JUMPDEST SWAP1 DUP2 MSTORE PUSH1 0x20 ADD PUSH1 0x40 MLOAD DUP1 SWAP2 SUB SWAP1 KECCAK256 PUSH1 0x7 ADD DUP1 SLOAD PUSH2 0x436 SWAP1 PUSH2 0x191F JUMP JUMPDEST DUP1 PUSH1 0x1F ADD PUSH1 0x20 DUP1 SWAP2 DIV MUL PUSH1 0x20 ADD PUSH1 0x40 MLOAD SWAP1 DUP2 ADD PUSH1 0x40 MSTORE DUP1 SWAP3 SWAP2 SWAP1 DUP2 DUP2 MSTORE PUSH1 0x20 ADD DUP3 DUP1 SLOAD PUSH2 0x462 SWAP1 PUSH2 0x191F JUMP JUMPDEST DUP1 ISZERO PUSH2 0x4AF JUMPI DUP1 PUSH1 0x1F LT PUSH2 0x484 JUMPI PUSH2 0x100 DUP1 DUP4 SLOAD DIV MUL DUP4 MSTORE SWAP2 PUSH1 0x20 ADD SWAP2 PUSH2 0x4AF JUMP JUMPDEST DUP3 ADD SWAP2 SWAP1 PUSH1 0x0 MSTORE PUSH1 0x20 PUSH1 0x0 KECCAK256 SWAP1 JUMPDEST DUP2 SLOAD DUP2 MSTORE SWAP1 PUSH1 0x1 ADD SWAP1 PUSH1 0x20 ADD DUP1 DUP4 GT PUSH2 0x492 JUMPI DUP3 SWAP1 SUB PUSH1 0x1F AND DUP3 ADD SWAP2 JUMPDEST POP POP POP POP POP DUP13 PUSH2 0x1469 JUMP JUMPDEST ISZERO PUSH2 0x96F JUMPI DUP6 DUP4 LT ISZERO DUP1 ISZERO PUSH2 0x4CE JUMPI POP DUP5 DUP4 LT JUMPDEST ISZERO PUSH2 0x961 JUMPI PUSH1 0x0 PUSH1 0x3 DUP3 DUP2 SLOAD DUP2 LT PUSH2 0x4E8 JUMPI PUSH2 0x4E8 PUSH2 0x1909 JUMP JUMPDEST SWAP1 PUSH1 0x0 MSTORE PUSH1 0x20 PUSH1 0x0 KECCAK256 ADD PUSH1 0x40 MLOAD PUSH2 0x4FF SWAP2 SWAP1 PUSH2 0x1959 JUMP JUMPDEST SWAP1 DUP2 MSTORE PUSH1 0x20 ADD PUSH1 0x40 MLOAD DUP1 SWAP2 SUB SWAP1 KECCAK256 PUSH1 0x40 MLOAD DUP1 PUSH2 0x140 ADD PUSH1 0x40 MSTORE SWAP1 DUP2 PUSH1 0x0 DUP3 ADD DUP1 SLOAD PUSH2 0x529 SWAP1 PUSH2 0x191F JUMP JUMPDEST DUP1 PUSH1 0x1F ADD PUSH1 0x20 DUP1 SWAP2 DIV MUL PUSH1 0x20 ADD PUSH1 0x40 MLOAD SWAP1 DUP2 ADD PUSH1 0x40 MSTORE DUP1 SWAP3 SWAP2 SWAP1 DUP2 DUP2 MSTORE PUSH1 0x20 ADD DUP3 DUP1 SLOAD PUSH2 0x555 SWAP1 PUSH2 0x191F JUMP JUMPDEST DUP1 ISZERO PUSH2 0x5A2 JUMPI DUP1 PUSH1 0x1F LT PUSH2 0x577 JUMPI PUSH2 0x100 DUP1 DUP4 SLOAD DIV MUL DUP4 MSTORE SWAP2 PUSH1 0x20 ADD SWAP2 PUSH2 0x5A2 JUMP JUMPDEST DUP3 ADD SWAP2 SWAP1 PUSH1 0x0 MSTORE PUSH1 0x20 PUSH1 0x0 KECCAK256 SWAP1 JUMPDEST DUP2 SLOAD DUP2 MSTORE SWAP1 PUSH1 0x1 ADD SWAP1 PUSH1 0x20 ADD DUP1 DUP4 GT PUSH2 0x585 JUMPI DUP3 SWAP1 SUB PUSH1 0x1F AND DUP3 ADD SWAP2 JUMPDEST POP POP POP POP POP DUP2 MSTORE PUSH1 0x20 ADD PUSH1 0x1 DUP3 ADD DUP1 SLOAD PUSH2 0x5BB SWAP1 PUSH2 0x191F JUMP JUMPDEST DUP1 PUSH1 0x1F ADD PUSH1 0x20 DUP1 SWAP2 DIV MUL PUSH1 0x20 ADD PUSH1 0x40 MLOAD SWAP1 DUP2 ADD PUSH1 0x40 MSTORE DUP1 SWAP3 SWAP2 SWAP1 DUP2 DUP2 MSTORE PUSH1 0x20 ADD DUP3 DUP1 SLOAD PUSH2 0x5E7 SWAP1 PUSH2 0x191F JUMP JUMPDEST DUP1 ISZERO PUSH2 0x634 JUMPI DUP1 PUSH1 0x1F LT PUSH2 0x609 JUMPI PUSH2 0x100 DUP1 DUP4 SLOAD DIV MUL DUP4 MSTORE SWAP2 PUSH1 0x20 ADD SWAP2 PUSH2 0x634 JUMP JUMPDEST DUP3 ADD SWAP2 SWAP1 PUSH1 0x0 MSTORE PUSH1 0x20 PUSH1 0x0 KECCAK256 SWAP1 JUMPDEST DUP2 SLOAD DUP2 MSTORE SWAP1 PUSH1 0x1 ADD SWAP1 PUSH1 0x20 ADD DUP1 DUP4 GT PUSH2 0x617 JUMPI DUP3 SWAP1 SUB PUSH1 0x1F AND DUP3 ADD SWAP2 JUMPDEST POP POP POP POP POP DUP2 MSTORE PUSH1 0x20 ADD PUSH1 0x2 DUP3 ADD DUP1 SLOAD PUSH2 0x64D SWAP1 PUSH2 0x191F JUMP JUMPDEST DUP1 PUSH1 0x1F ADD PUSH1 0x20 DUP1 SWAP2 DIV MUL PUSH1 0x20 ADD PUSH1 0x40 MLOAD SWAP1 DUP2 ADD PUSH1 0x40 MSTORE DUP1 SWAP3 SWAP2 SWAP1 DUP2 DUP2 MSTORE PUSH1 0x20 ADD DUP3 DUP1 SLOAD PUSH2 0x679 SWAP1 PUSH2 0x191F JUMP JUMPDEST DUP1 ISZERO PUSH2 0x6C6 JUMPI DUP1 PUSH1 0x1F LT PUSH2 0x69B JUMPI PUSH2 0x100 DUP1 DUP4 SLOAD DIV MUL DUP4 MSTORE SWAP2 PUSH1 0x20 ADD SWAP2 PUSH2 0x6C6 JUMP JUMPDEST DUP3 ADD SWAP2 SWAP1 PUSH1 0x0 MSTORE PUSH1 0x20 PUSH1 0x0 KECCAK256 SWAP1 JUMPDEST DUP2 SLOAD DUP2 MSTORE SWAP1 PUSH1 0x1 ADD SWAP1 PUSH1 0x20 ADD DUP1 DUP4 GT PUSH2 0x6A9 JUMPI DUP3 SWAP1 SUB PUSH1 0x1F AND DUP3 ADD SWAP2 JUMPDEST POP POP POP POP POP DUP2 MSTORE PUSH1 0x20 ADD PUSH1 0x3 DUP3 ADD SLOAD DUP2 MSTORE PUSH1 0x20 ADD PUSH1 0x4 DUP3 ADD DUP1 SLOAD PUSH2 0x6E9 SWAP1 PUSH2 0x191F JUMP JUMPDEST DUP1 PUSH1 0x1F ADD PUSH1 0x20 DUP1 SWAP2 DIV MUL PUSH1 0x20 ADD PUSH1 0x40 MLOAD SWAP1 DUP2 ADD PUSH1 0x40 MSTORE DUP1 SWAP3 SWAP2 SWAP1 DUP2 DUP2 MSTORE PUSH1 0x20 ADD DUP3 DUP1 SLOAD PUSH2 0x715 SWAP1 PUSH2 0x191F JUMP JUMPDEST DUP1 ISZERO PUSH2 0x762 JUMPI DUP1 PUSH1 0x1F LT PUSH2 0x737 JUMPI PUSH2 0x100 DUP1 DUP4 SLOAD DIV MUL DUP4 MSTORE SWAP2 PUSH1 0x20 ADD SWAP2 PUSH2 0x762 JUMP JUMPDEST DUP3 ADD SWAP2 SWAP1 PUSH1 0x0 MSTORE PUSH1 0x20 PUSH1 0x0 KECCAK256 SWAP1 JUMPDEST DUP2 SLOAD DUP2 MSTORE SWAP1 PUSH1 0x1 ADD SWAP1 PUSH1 0x20 ADD DUP1 DUP4 GT PUSH2 0x745 JUMPI DUP3 SWAP1 SUB PUSH1 0x1F AND DUP3 ADD SWAP2 JUMPDEST POP POP POP POP POP DUP2 MSTORE PUSH1 0x20 ADD PUSH1 0x5 DUP3 ADD DUP1 SLOAD PUSH2 0x77B SWAP1 PUSH2 0x191F JUMP JUMPDEST DUP1 PUSH1 0x1F ADD PUSH1 0x20 DUP1 SWAP2 DIV MUL PUSH1 0x20 ADD PUSH1 0x40 MLOAD SWAP1 DUP2 ADD PUSH1 0x40 MSTORE DUP1 SWAP3 SWAP2 SWAP1 DUP2 DUP2 MSTORE PUSH1 0x20 ADD DUP3 DUP1 SLOAD PUSH2 0x7A7 SWAP1 PUSH2 0x191F JUMP JUMPDEST DUP1 ISZERO PUSH2 0x7F4 JUMPI DUP1 PUSH1 0x1F LT PUSH2 0x7C9 JUMPI PUSH2 0x100 DUP1 DUP4 SLOAD DIV MUL DUP4 MSTORE SWAP2 PUSH1 0x20 ADD SWAP2 PUSH2 0x7F4 JUMP JUMPDEST DUP3 ADD SWAP2 SWAP1 PUSH1 0x0 MSTORE PUSH1 0x20 PUSH1 0x0 KECCAK256 SWAP1 JUMPDEST DUP2 SLOAD DUP2 MSTORE SWAP1 PUSH1 0x1 ADD SWAP1 PUSH1 0x20 ADD DUP1 DUP4 GT PUSH2 0x7D7 JUMPI DUP3 SWAP1 SUB PUSH1 0x1F AND DUP3 ADD SWAP2 JUMPDEST POP POP POP POP POP DUP2 MSTORE PUSH1 0x20 ADD PUSH1 0x6 DUP3 ADD DUP1 SLOAD PUSH2 0x80D SWAP1 PUSH2 0x191F JUMP JUMPDEST DUP1 PUSH1 0x1F ADD PUSH1 0x20 DUP1 SWAP2 DIV MUL PUSH1 0x20 ADD PUSH1 0x40 MLOAD SWAP1 DUP2 ADD PUSH1 0x40 MSTORE DUP1 SWAP3 SWAP2 SWAP1 DUP2 DUP2 MSTORE PUSH1 0x20 ADD DUP3 DUP1 SLOAD PUSH2 0x839 SWAP1 PUSH2 0x191F JUMP JUMPDEST DUP1 ISZERO PUSH2 0x886 JUMPI DUP1 PUSH1 0x1F LT PUSH2 0x85B JUMPI PUSH2 0x100 DUP1 DUP4 SLOAD DIV MUL DUP4 MSTORE SWAP2 PUSH1 0x20 ADD SWAP2 PUSH2 0x886 JUMP JUMPDEST DUP3 ADD SWAP2 SWAP1 PUSH1 0x0 MSTORE PUSH1 0x20 PUSH1 0x0 KECCAK256 SWAP1 JUMPDEST DUP2 SLOAD DUP2 MSTORE SWAP1 PUSH1 0x1 ADD SWAP1 PUSH1 0x20 ADD DUP1 DUP4 GT PUSH2 0x869 JUMPI DUP3 SWAP1 SUB PUSH1 0x1F AND DUP3 ADD SWAP2 JUMPDEST POP POP POP POP POP DUP2 MSTORE PUSH1 0x20 ADD PUSH1 0x7 DUP3 ADD DUP1 SLOAD PUSH2 0x89F SWAP1 PUSH2 0x191F JUMP JUMPDEST DUP1 PUSH1 0x1F ADD PUSH1 0x20 DUP1 SWAP2 DIV MUL PUSH1 0x20 ADD PUSH1 0x40 MLOAD SWAP1 DUP2 ADD PUSH1 0x40 MSTORE DUP1 SWAP3 SWAP2 SWAP1 DUP2 DUP2 MSTORE PUSH1 0x20 ADD DUP3 DUP1 SLOAD PUSH2 0x8CB SWAP1 PUSH2 0x191F JUMP JUMPDEST DUP1 ISZERO PUSH2 0x918 JUMPI DUP1 PUSH1 0x1F LT PUSH2 0x8ED JUMPI PUSH2 0x100 DUP1 DUP4 SLOAD DIV MUL DUP4 MSTORE SWAP2 PUSH1 0x20 ADD SWAP2 PUSH2 0x918 JUMP JUMPDEST DUP3 ADD SWAP2 SWAP1 PUSH1 0x0 MSTORE PUSH1 0x20 PUSH1 0x0 KECCAK256 SWAP1 JUMPDEST DUP2 SLOAD DUP2 MSTORE SWAP1 PUSH1 0x1 ADD SWAP1 PUSH1 0x20 ADD DUP1 DUP4 GT PUSH2 0x8FB JUMPI DUP3 SWAP1 SUB PUSH1 0x1F AND DUP3 ADD SWAP2 JUMPDEST POP POP POP POP POP DUP2 MSTORE PUSH1 0x20 ADD PUSH1 0x8 DUP3 ADD SLOAD DUP2 MSTORE PUSH1 0x20 ADD PUSH1 0x9 DUP3 ADD SLOAD DUP2 MSTORE POP POP DUP5 DUP4 DUP2 MLOAD DUP2 LT PUSH2 0x947 JUMPI PUSH2 0x947 PUSH2 0x1909 JUMP JUMPDEST PUSH1 0x20 MUL PUSH1 0x20 ADD ADD DUP2 SWAP1 MSTORE POP DUP2 DUP1 PUSH2 0x95D SWAP1 PUSH2 0x19E5 JUMP JUMPDEST SWAP3 POP POP JUMPDEST DUP3 PUSH2 0x96B DUP2 PUSH2 0x19E5 JUMP JUMPDEST SWAP4 POP POP JUMPDEST DUP1 PUSH2 0x979 DUP2 PUSH2 0x19E5 JUMP JUMPDEST SWAP2 POP POP PUSH2 0x3D5 JUMP JUMPDEST POP SWAP2 SWAP6 POP POP POP POP POP POP JUMPDEST SWAP4 SWAP3 POP POP POP JUMP JUMPDEST PUSH1 0x0 DUP9 MLOAD GT PUSH2 0x9D9 JUMPI PUSH1 0x40 MLOAD PUSH3 0x461BCD PUSH1 0xE5 SHL DUP2 MSTORE PUSH1 0x20 PUSH1 0x4 DUP3 ADD MSTORE PUSH1 0x13 PUSH1 0x24 DUP3 ADD MSTORE PUSH19 0x4349442063616E6E6F7420626520656D707479 PUSH1 0x68 SHL PUSH1 0x44 DUP3 ADD MSTORE PUSH1 0x64 ADD PUSH2 0x125 JUMP JUMPDEST PUSH1 0x0 DUP9 PUSH1 0x40 MLOAD PUSH2 0x9E9 SWAP2 SWAP1 PUSH2 0x1A3B JUMP JUMPDEST SWAP1 DUP2 MSTORE PUSH1 0x40 MLOAD SWAP1 DUP2 SWAP1 SUB PUSH1 0x20 ADD SWAP1 KECCAK256 DUP1 SLOAD PUSH2 0xA03 SWAP1 PUSH2 0x191F JUMP JUMPDEST ISZERO SWAP1 POP PUSH2 0xA47 JUMPI PUSH1 0x40 MLOAD PUSH3 0x461BCD PUSH1 0xE5 SHL DUP2 MSTORE PUSH1 0x20 PUSH1 0x4 DUP3 ADD MSTORE PUSH1 0x12 PUSH1 0x24 DUP3 ADD MSTORE PUSH18 0x43494420616C726561647920657869737473 PUSH1 0x70 SHL PUSH1 0x44 DUP3 ADD MSTORE PUSH1 0x64 ADD PUSH2 0x125 JUMP JUMPDEST PUSH1 0x0 DUP6 GT PUSH2 0xA97 JUMPI PUSH1 0x40 MLOAD PUSH3 0x461BCD PUSH1 0xE5 SHL DUP2 MSTORE PUSH1 0x20 PUSH1 0x4 DUP3 ADD DUP2 SWAP1 MSTORE PUSH1 0x24 DUP3 ADD MSTORE PUSH32 0x46696C652073697A65206D7573742062652067726561746572207468616E2030 PUSH1 0x44 DUP3 ADD MSTORE PUSH1 0x64 ADD PUSH2 0x125 JUMP JUMPDEST PUSH2 0xABF DUP2 PUSH1 0x40 MLOAD DUP1 PUSH1 0x40 ADD PUSH1 0x40 MSTORE DUP1 PUSH1 0x6 DUP2 MSTORE PUSH1 0x20 ADD PUSH6 0x7075626C6963 PUSH1 0xD0 SHL DUP2 MSTORE POP PUSH2 0x1469 JUMP JUMPDEST DUP1 PUSH2 0xAEE JUMPI POP PUSH2 0xAEE DUP2 PUSH1 0x40 MLOAD DUP1 PUSH1 0x40 ADD PUSH1 0x40 MSTORE DUP1 PUSH1 0x7 DUP2 MSTORE PUSH1 0x20 ADD PUSH7 0x70726976617465 PUSH1 0xC8 SHL DUP2 MSTORE POP PUSH2 0x1469 JUMP JUMPDEST DUP1 PUSH2 0xB20 JUMPI POP PUSH2 0xB20 DUP2 PUSH1 0x40 MLOAD DUP1 PUSH1 0x40 ADD PUSH1 0x40 MSTORE DUP1 PUSH1 0xA DUP2 MSTORE PUSH1 0x20 ADD PUSH10 0x1C995CDD1C9A58DD1959 PUSH1 0xB2 SHL DUP2 MSTORE POP PUSH2 0x1469 JUMP JUMPDEST PUSH2 0xB6C JUMPI PUSH1 0x40 MLOAD PUSH3 0x461BCD PUSH1 0xE5 SHL DUP2 MSTORE PUSH1 0x20 PUSH1 0x4 DUP3 ADD MSTORE PUSH1 0x1A PUSH1 0x24 DUP3 ADD MSTORE PUSH32 0x496E76616C6964207669736962696C6974792073657474696E67000000000000 PUSH1 0x44 DUP3 ADD MSTORE PUSH1 0x64 ADD PUSH2 0x125 JUMP JUMPDEST PUSH1 0x40 MLOAD DUP1 PUSH2 0x140 ADD PUSH1 0x40 MSTORE DUP1 DUP10 DUP2 MSTORE PUSH1 0x20 ADD DUP9 DUP2 MSTORE PUSH1 0x20 ADD DUP8 DUP2 MSTORE PUSH1 0x20 ADD DUP7 DUP2 MSTORE PUSH1 0x20 ADD DUP6 DUP2 MSTORE PUSH1 0x20 ADD DUP5 DUP2 MSTORE PUSH1 0x20 ADD DUP4 DUP2 MSTORE PUSH1 0x20 ADD DUP3 DUP2 MSTORE PUSH1 0x20 ADD TIMESTAMP DUP2 MSTORE PUSH1 0x20 ADD TIMESTAMP DUP2 MSTORE POP PUSH1 0x0 DUP10 PUSH1 0x40 MLOAD PUSH2 0xBC2 SWAP2 SWAP1 PUSH2 0x1A3B JUMP JUMPDEST SWAP1 DUP2 MSTORE PUSH1 0x40 MLOAD SWAP1 DUP2 SWAP1 SUB PUSH1 0x20 ADD SWAP1 KECCAK256 DUP2 MLOAD DUP2 SWAP1 PUSH2 0xBDF SWAP1 DUP3 PUSH2 0x1AA6 JUMP JUMPDEST POP PUSH1 0x20 DUP3 ADD MLOAD PUSH1 0x1 DUP3 ADD SWAP1 PUSH2 0xBF4 SWAP1 DUP3 PUSH2 0x1AA6 JUMP JUMPDEST POP PUSH1 0x40 DUP3 ADD MLOAD PUSH1 0x2 DUP3 ADD SWAP1 PUSH2 0xC09 SWAP1 DUP3 PUSH2 0x1AA6 JUMP JUMPDEST POP PUSH1 0x60 DUP3 ADD MLOAD PUSH1 0x3 DUP3 ADD SSTORE PUSH1 0x80 DUP3 ADD MLOAD PUSH1 0x4 DUP3 ADD SWAP1 PUSH2 0xC28 SWAP1 DUP3 PUSH2 0x1AA6 JUMP JUMPDEST POP PUSH1 0xA0 DUP3 ADD MLOAD PUSH1 0x5 DUP3 ADD SWAP1 PUSH2 0xC3D SWAP1 DUP3 PUSH2 0x1AA6 JUMP JUMPDEST POP PUSH1 0xC0 DUP3 ADD MLOAD PUSH1 0x6 DUP3 ADD SWAP1 PUSH2 0xC52 SWAP1 DUP3 PUSH2 0x1AA6 JUMP JUMPDEST POP PUSH1 0xE0 DUP3 ADD MLOAD PUSH1 0x7 DUP3 ADD SWAP1 PUSH2 0xC67 SWAP1 DUP3 PUSH2 0x1AA6 JUMP JUMPDEST POP PUSH2 0x100 DUP3 ADD MLOAD DUP2 PUSH1 0x8 ADD SSTORE PUSH2 0x120 DUP3 ADD MLOAD DUP2 PUSH1 0x9 ADD SSTORE SWAP1 POP POP CALLER PUSH1 0x1 DUP10 PUSH1 0x40 MLOAD PUSH2 0xC92 SWAP2 SWAP1 PUSH2 0x1A3B JUMP JUMPDEST SWAP1 DUP2 MSTORE PUSH1 0x40 DUP1 MLOAD PUSH1 0x20 SWAP3 DUP2 SWAP1 SUB DUP4 ADD SWAP1 KECCAK256 DUP1 SLOAD PUSH1 0x1 PUSH1 0x1 PUSH1 0xA0 SHL SUB NOT AND PUSH1 0x1 PUSH1 0x1 PUSH1 0xA0 SHL SUB SWAP5 SWAP1 SWAP5 AND SWAP4 SWAP1 SWAP4 OR SWAP1 SWAP3 SSTORE CALLER PUSH1 0x0 SWAP1 DUP2 MSTORE PUSH1 0x2 DUP3 MSTORE SWAP2 DUP3 KECCAK256 DUP1 SLOAD PUSH1 0x1 DUP2 ADD DUP3 SSTORE SWAP1 DUP4 MSTORE SWAP2 KECCAK256 ADD PUSH2 0xCE7 DUP10 DUP3 PUSH2 0x1AA6 JUMP JUMPDEST POP PUSH1 0x3 DUP1 SLOAD PUSH1 0x1 DUP2 ADD DUP3 SSTORE PUSH1 0x0 SWAP2 SWAP1 SWAP2 MSTORE PUSH32 0xC2575A0E9E593C00F959F8C92F12DB2869C3395A3B0502D05E2516446F71F85B ADD PUSH2 0xD24 DUP10 DUP3 PUSH2 0x1AA6 JUMP JUMPDEST POP PUSH1 0x40 MLOAD CALLER SWAP1 PUSH2 0xD35 SWAP1 DUP11 SWAP1 PUSH2 0x1A3B JUMP JUMPDEST PUSH1 0x40 MLOAD DUP1 SWAP2 SUB SWAP1 KECCAK256 PUSH32 0x9C47ABDE8CBE4775904A34BBF85EB2D02226B30A174D31A51D590694147CFB5E DUP10 DUP10 DUP10 DUP10 DUP10 DUP10 DUP10 PUSH1 0x40 MLOAD PUSH2 0xD78 SWAP8 SWAP7 SWAP6 SWAP5 SWAP4 SWAP3 SWAP2 SWAP1 PUSH2 0x1B66 JUMP JUMPDEST PUSH1 0x40 MLOAD DUP1 SWAP2 SUB SWAP1 LOG3 POP POP POP POP POP POP POP POP JUMP JUMPDEST PUSH1 0x0 DUP1 DUP1 JUMPDEST PUSH1 0x3 SLOAD DUP2 LT ISZERO PUSH2 0xE8D JUMPI PUSH2 0xE68 PUSH1 0x0 PUSH1 0x3 DUP4 DUP2 SLOAD DUP2 LT PUSH2 0xDB1 JUMPI PUSH2 0xDB1 PUSH2 0x1909 JUMP JUMPDEST SWAP1 PUSH1 0x0 MSTORE PUSH1 0x20 PUSH1 0x0 KECCAK256 ADD PUSH1 0x40 MLOAD PUSH2 0xDC8 SWAP2 SWAP1 PUSH2 0x1959 JUMP JUMPDEST SWAP1 DUP2 MSTORE PUSH1 0x20 ADD PUSH1 0x40 MLOAD DUP1 SWAP2 SUB SWAP1 KECCAK256 PUSH1 0x7 ADD DUP1 SLOAD PUSH2 0xDE4 SWAP1 PUSH2 0x191F JUMP JUMPDEST DUP1 PUSH1 0x1F ADD PUSH1 0x20 DUP1 SWAP2 DIV MUL PUSH1 0x20 ADD PUSH1 0x40 MLOAD SWAP1 DUP2 ADD PUSH1 0x40 MSTORE DUP1 SWAP3 SWAP2 SWAP1 DUP2 DUP2 MSTORE PUSH1 0x20 ADD DUP3 DUP1 SLOAD PUSH2 0xE10 SWAP1 PUSH2 0x191F JUMP JUMPDEST DUP1 ISZERO PUSH2 0xE5D JUMPI DUP1 PUSH1 0x1F LT PUSH2 0xE32 JUMPI PUSH2 0x100 DUP1 DUP4 SLOAD DIV MUL DUP4 MSTORE SWAP2 PUSH1 0x20 ADD SWAP2 PUSH2 0xE5D JUMP JUMPDEST DUP3 ADD SWAP2 SWAP1 PUSH1 0x0 MSTORE PUSH1 0x20 PUSH1 0x0 KECCAK256 SWAP1 JUMPDEST DUP2 SLOAD DUP2 MSTORE SWAP1 PUSH1 0x1 ADD SWAP1 PUSH1 0x20 ADD DUP1 DUP4 GT PUSH2 0xE40 JUMPI DUP3 SWAP1 SUB PUSH1 0x1F AND DUP3 ADD SWAP2 JUMPDEST POP POP POP POP POP DUP6 PUSH2 0x1469 JUMP JUMPDEST ISZERO PUSH2 0xE7B JUMPI DUP2 PUSH2 0xE77 DUP2 PUSH2 0x19E5 JUMP JUMPDEST SWAP3 POP POP JUMPDEST DUP1 PUSH2 0xE85 DUP2 PUSH2 0x19E5 JUMP JUMPDEST SWAP2 POP POP PUSH2 0xD8F JUMP JUMPDEST POP SWAP3 SWAP2 POP POP JUMP JUMPDEST PUSH1 0x60 PUSH1 0x0 DUP3 GT DUP1 ISZERO PUSH2 0xEA7 JUMPI POP PUSH1 0x64 DUP3 GT ISZERO JUMPDEST PUSH2 0xEE7 JUMPI PUSH1 0x40 MLOAD PUSH3 0x461BCD PUSH1 0xE5 SHL DUP2 MSTORE PUSH1 0x20 PUSH1 0x4 DUP3 ADD MSTORE PUSH1 0x11 PUSH1 0x24 DUP3 ADD MSTORE PUSH17 0x496E76616C696420706167652073697A65 PUSH1 0x78 SHL PUSH1 0x44 DUP3 ADD MSTORE PUSH1 0x64 ADD PUSH2 0x125 JUMP JUMPDEST PUSH1 0x0 PUSH2 0xEF3 DUP4 DUP6 PUSH2 0x19FE JUMP JUMPDEST PUSH1 0x3 SLOAD SWAP1 SWAP2 POP DUP2 LT PUSH2 0xF39 JUMPI PUSH1 0x40 DUP1 MLOAD PUSH1 0x0 DUP1 DUP3 MSTORE PUSH1 0x20 DUP3 ADD SWAP1 SWAP3 MSTORE SWAP1 PUSH2 0xF30 JUMP JUMPDEST PUSH2 0xF1D PUSH2 0x14C2 JUMP JUMPDEST DUP2 MSTORE PUSH1 0x20 ADD SWAP1 PUSH1 0x1 SWAP1 SUB SWAP1 DUP2 PUSH2 0xF15 JUMPI SWAP1 POP JUMPDEST POP SWAP2 POP POP PUSH2 0x1463 JUMP JUMPDEST PUSH1 0x0 PUSH2 0xF45 DUP5 DUP4 PUSH2 0x1A15 JUMP JUMPDEST PUSH1 0x3 SLOAD SWAP1 SWAP2 POP DUP2 GT ISZERO PUSH2 0xF57 JUMPI POP PUSH1 0x3 SLOAD JUMPDEST PUSH1 0x0 PUSH2 0xF63 DUP4 DUP4 PUSH2 0x1A28 JUMP JUMPDEST PUSH8 0xFFFFFFFFFFFFFFFF DUP2 GT ISZERO PUSH2 0xF7B JUMPI PUSH2 0xF7B PUSH2 0x1515 JUMP JUMPDEST PUSH1 0x40 MLOAD SWAP1 DUP1 DUP3 MSTORE DUP1 PUSH1 0x20 MUL PUSH1 0x20 ADD DUP3 ADD PUSH1 0x40 MSTORE DUP1 ISZERO PUSH2 0xFB4 JUMPI DUP2 PUSH1 0x20 ADD JUMPDEST PUSH2 0xFA1 PUSH2 0x14C2 JUMP JUMPDEST DUP2 MSTORE PUSH1 0x20 ADD SWAP1 PUSH1 0x1 SWAP1 SUB SWAP1 DUP2 PUSH2 0xF99 JUMPI SWAP1 POP JUMPDEST POP SWAP1 POP DUP3 JUMPDEST DUP3 DUP2 LT ISZERO PUSH2 0x145D JUMPI PUSH1 0x0 PUSH1 0x3 DUP3 DUP2 SLOAD DUP2 LT PUSH2 0xFD6 JUMPI PUSH2 0xFD6 PUSH2 0x1909 JUMP JUMPDEST SWAP1 PUSH1 0x0 MSTORE PUSH1 0x20 PUSH1 0x0 KECCAK256 ADD PUSH1 0x40 MLOAD PUSH2 0xFED SWAP2 SWAP1 PUSH2 0x1959 JUMP JUMPDEST SWAP1 DUP2 MSTORE PUSH1 0x20 ADD PUSH1 0x40 MLOAD DUP1 SWAP2 SUB SWAP1 KECCAK256 PUSH1 0x40 MLOAD DUP1 PUSH2 0x140 ADD PUSH1 0x40 MSTORE SWAP1 DUP2 PUSH1 0x0 DUP3 ADD DUP1 SLOAD PUSH2 0x1017 SWAP1 PUSH2 0x191F JUMP JUMPDEST DUP1 PUSH1 0x1F ADD PUSH1 0x20 DUP1 SWAP2 DIV MUL PUSH1 0x20 ADD PUSH1 0x40 MLOAD SWAP1 DUP2 ADD PUSH1 0x40 MSTORE DUP1 SWAP3 SWAP2 SWAP1 DUP2 DUP2 MSTORE PUSH1 0x20 ADD DUP3 DUP1 SLOAD PUSH2 0x1043 SWAP1 PUSH2 0x191F JUMP JUMPDEST DUP1 ISZERO PUSH2 0x1090 JUMPI DUP1 PUSH1 0x1F LT PUSH2 0x1065 JUMPI PUSH2 0x100 DUP1 DUP4 SLOAD DIV MUL DUP4 MSTORE SWAP2 PUSH1 0x20 ADD SWAP2 PUSH2 0x1090 JUMP JUMPDEST DUP3 ADD SWAP2 SWAP1 PUSH1 0x0 MSTORE PUSH1 0x20 PUSH1 0x0 KECCAK256 SWAP1 JUMPDEST DUP2 SLOAD DUP2 MSTORE SWAP1 PUSH1 0x1 ADD SWAP1 PUSH1 0x20 ADD DUP1 DUP4 GT PUSH2 0x1073 JUMPI DUP3 SWAP1 SUB PUSH1 0x1F AND DUP3 ADD SWAP2 JUMPDEST POP POP POP POP POP DUP2 MSTORE PUSH1 0x20 ADD PUSH1 0x1 DUP3 ADD DUP1 SLOAD PUSH2 0x10A9 SWAP1 PUSH2 0x191F JUMP JUMPDEST DUP1 PUSH1 0x1F ADD PUSH1 0x20 DUP1 SWAP2 DIV MUL PUSH1 0x20 ADD PUSH1 0x40 MLOAD SWAP1 DUP2 ADD PUSH1 0x40 MSTORE DUP1 SWAP3 SWAP2 SWAP1 DUP2 DUP2 MSTORE PUSH1 0x20 ADD DUP3 DUP1 SLOAD PUSH2 0x10D5 SWAP1 PUSH2 0x191F JUMP JUMPDEST DUP1 ISZERO PUSH2 0x1122 JUMPI DUP1 PUSH1 0x1F LT PUSH2 0x10F7 JUMPI PUSH2 0x100 DUP1 DUP4 SLOAD DIV MUL DUP4 MSTORE SWAP2 PUSH1 0x20 ADD SWAP2 PUSH2 0x1122 JUMP JUMPDEST DUP3 ADD SWAP2 SWAP1 PUSH1 0x0 MSTORE PUSH1 0x20 PUSH1 0x0 KECCAK256 SWAP1 JUMPDEST DUP2 SLOAD DUP2 MSTORE SWAP1 PUSH1 0x1 ADD SWAP1 PUSH1 0x20 ADD DUP1 DUP4 GT PUSH2 0x1105 JUMPI DUP3 SWAP1 SUB PUSH1 0x1F AND DUP3 ADD SWAP2 JUMPDEST POP POP POP POP POP DUP2 MSTORE PUSH1 0x20 ADD PUSH1 0x2 DUP3 ADD DUP1 SLOAD PUSH2 0x113B SWAP1 PUSH2 0x191F JUMP JUMPDEST DUP1 PUSH1 0x1F ADD PUSH1 0x20 DUP1 SWAP2 DIV MUL PUSH1 0x20 ADD PUSH1 0x40 MLOAD SWAP1 DUP2 ADD PUSH1 0x40 MSTORE DUP1 SWAP3 SWAP2 SWAP1 DUP2 DUP2 MSTORE PUSH1 0x20 ADD DUP3 DUP1 SLOAD PUSH2 0x1167 SWAP1 PUSH2 0x191F JUMP JUMPDEST DUP1 ISZERO PUSH2 0x11B4 JUMPI DUP1 PUSH1 0x1F LT PUSH2 0x1189 JUMPI PUSH2 0x100 DUP1 DUP4 SLOAD DIV MUL DUP4 MSTORE SWAP2 PUSH1 0x20 ADD SWAP2 PUSH2 0x11B4 JUMP JUMPDEST DUP3 ADD SWAP2 SWAP1 PUSH1 0x0 MSTORE PUSH1 0x20 PUSH1 0x0 KECCAK256 SWAP1 JUMPDEST DUP2 SLOAD DUP2 MSTORE SWAP1 PUSH1 0x1 ADD SWAP1 PUSH1 0x20 ADD DUP1 DUP4 GT PUSH2 0x1197 JUMPI DUP3 SWAP1 SUB PUSH1 0x1F AND DUP3 ADD SWAP2 JUMPDEST POP POP POP POP POP DUP2 MSTORE PUSH1 0x20 ADD PUSH1 0x3 DUP3 ADD SLOAD DUP2 MSTORE PUSH1 0x20 ADD PUSH1 0x4 DUP3 ADD DUP1 SLOAD PUSH2 0x11D7 SWAP1 PUSH2 0x191F JUMP JUMPDEST DUP1 PUSH1 0x1F ADD PUSH1 0x20 DUP1 SWAP2 DIV MUL PUSH1 0x20 ADD PUSH1 0x40 MLOAD SWAP1 DUP2 ADD PUSH1 0x40 MSTORE DUP1 SWAP3 SWAP2 SWAP1 DUP2 DUP2 MSTORE PUSH1 0x20 ADD DUP3 DUP1 SLOAD PUSH2 0x1203 SWAP1 PUSH2 0x191F JUMP JUMPDEST DUP1 ISZERO PUSH2 0x1250 JUMPI DUP1 PUSH1 0x1F LT PUSH2 0x1225 JUMPI PUSH2 0x100 DUP1 DUP4 SLOAD DIV MUL DUP4 MSTORE SWAP2 PUSH1 0x20 ADD SWAP2 PUSH2 0x1250 JUMP JUMPDEST DUP3 ADD SWAP2 SWAP1 PUSH1 0x0 MSTORE PUSH1 0x20 PUSH1 0x0 KECCAK256 SWAP1 JUMPDEST DUP2 SLOAD DUP2 MSTORE SWAP1 PUSH1 0x1 ADD SWAP1 PUSH1 0x20 ADD DUP1 DUP4 GT PUSH2 0x1233 JUMPI DUP3 SWAP1 SUB PUSH1 0x1F AND DUP3 ADD SWAP2 JUMPDEST POP POP POP POP POP DUP2 MSTORE PUSH1 0x20 ADD PUSH1 0x5 DUP3 ADD DUP1 SLOAD PUSH2 0x1269 SWAP1 PUSH2 0x191F JUMP JUMPDEST DUP1 PUSH1 0x1F ADD PUSH1 0x20 DUP1 SWAP2 DIV MUL PUSH1 0x20 ADD PUSH1 0x40 MLOAD SWAP1 DUP2 ADD PUSH1 0x40 MSTORE DUP1 SWAP3 SWAP2 SWAP1 DUP2 DUP2 MSTORE PUSH1 0x20 ADD DUP3 DUP1 SLOAD PUSH2 0x1295 SWAP1 PUSH2 0x191F JUMP JUMPDEST DUP1 ISZERO PUSH2 0x12E2 JUMPI DUP1 PUSH1 0x1F LT PUSH2 0x12B7 JUMPI PUSH2 0x100 DUP1 DUP4 SLOAD DIV MUL DUP4 MSTORE SWAP2 PUSH1 0x20 ADD SWAP2 PUSH2 0x12E2 JUMP JUMPDEST DUP3 ADD SWAP2 SWAP1 PUSH1 0x0 MSTORE PUSH1 0x20 PUSH1 0x0 KECCAK256 SWAP1 JUMPDEST DUP2 SLOAD DUP2 MSTORE SWAP1 PUSH1 0x1 ADD SWAP1 PUSH1 0x20 ADD DUP1 DUP4 GT PUSH2 0x12C5 JUMPI DUP3 SWAP1 SUB PUSH1 0x1F AND DUP3 ADD SWAP2 JUMPDEST POP POP POP POP POP DUP2 MSTORE PUSH1 0x20 ADD PUSH1 0x6 DUP3 ADD DUP1 SLOAD PUSH2 0x12FB SWAP1 PUSH2 0x191F JUMP JUMPDEST DUP1 PUSH1 0x1F ADD PUSH1 0x20 DUP1 SWAP2 DIV MUL PUSH1 0x20 ADD PUSH1 0x40 MLOAD SWAP1 DUP2 ADD PUSH1 0x40 MSTORE DUP1 SWAP3 SWAP2 SWAP1 DUP2 DUP2 MSTORE PUSH1 0x20 ADD DUP3 DUP1 SLOAD PUSH2 0x1327 SWAP1 PUSH2 0x191F JUMP JUMPDEST DUP1 ISZERO PUSH2 0x1374 JUMPI DUP1 PUSH1 0x1F LT PUSH2 0x1349 JUMPI PUSH2 0x100 DUP1 DUP4 SLOAD DIV MUL DUP4 MSTORE SWAP2 PUSH1 0x20 ADD SWAP2 PUSH2 0x1374 JUMP JUMPDEST DUP3 ADD SWAP2 SWAP1 PUSH1 0x0 MSTORE PUSH1 0x20 PUSH1 0x0 KECCAK256 SWAP1 JUMPDEST DUP2 SLOAD DUP2 MSTORE SWAP1 PUSH1 0x1 ADD SWAP1 PUSH1 0x20 ADD DUP1 DUP4 GT PUSH2 0x1357 JUMPI DUP3 SWAP1 SUB PUSH1 0x1F AND DUP3 ADD SWAP2 JUMPDEST POP POP POP POP POP DUP2 MSTORE PUSH1 0x20 ADD PUSH1 0x7 DUP3 ADD DUP1 SLOAD PUSH2 0x138D SWAP1 PUSH2 0x191F JUMP JUMPDEST DUP1 PUSH1 0x1F ADD PUSH1 0x20 DUP1 SWAP2 DIV MUL PUSH1 0x20 ADD PUSH1 0x40 MLOAD SWAP1 DUP2 ADD PUSH1 0x40 MSTORE DUP1 SWAP3 SWAP2 SWAP1 DUP2 DUP2 MSTORE PUSH1 0x20 ADD DUP3 DUP1 SLOAD PUSH2 0x13B9 SWAP1 PUSH2 0x191F JUMP JUMPDEST DUP1 ISZERO PUSH2 0x1406 JUMPI DUP1 PUSH1 0x1F LT PUSH2 0x13DB JUMPI PUSH2 0x100 DUP1 DUP4 SLOAD DIV MUL DUP4 MSTORE SWAP2 PUSH1 0x20 ADD SWAP2 PUSH2 0x1406 JUMP JUMPDEST DUP3 ADD SWAP2 SWAP1 PUSH1 0x0 MSTORE PUSH1 0x20 PUSH1 0x0 KECCAK256 SWAP1 JUMPDEST DUP2 SLOAD DUP2 MSTORE SWAP1 PUSH1 0x1 ADD SWAP1 PUSH1 0x20 ADD DUP1 DUP4 GT PUSH2 0x13E9 JUMPI DUP3 SWAP1 SUB PUSH1 0x1F AND DUP3 ADD SWAP2 JUMPDEST POP POP POP SWAP2 DUP4 MSTORE POP POP PUSH1 0x8 DUP3 ADD SLOAD PUSH1 0x20 DUP3 ADD MSTORE PUSH1 0x9 SWAP1 SWAP2 ADD SLOAD PUSH1 0x40 SWAP1 SWAP2 ADD MSTORE DUP3 PUSH2 0x142F DUP7 DUP5 PUSH2 0x1A28 JUMP JUMPDEST DUP2 MLOAD DUP2 LT PUSH2 0x143F JUMPI PUSH2 0x143F PUSH2 0x1909 JUMP JUMPDEST PUSH1 0x20 MUL PUSH1 0x20 ADD ADD DUP2 SWAP1 MSTORE POP DUP1 DUP1 PUSH2 0x1455 SWAP1 PUSH2 0x19E5 JUMP JUMPDEST SWAP2 POP POP PUSH2 0xFB9 JUMP JUMPDEST POP SWAP3 POP POP POP JUMPDEST SWAP3 SWAP2 POP POP JUMP JUMPDEST PUSH1 0x0 DUP2 PUSH1 0x40 MLOAD PUSH1 0x20 ADD PUSH2 0x147C SWAP2 SWAP1 PUSH2 0x1A3B JUMP JUMPDEST PUSH1 0x40 MLOAD PUSH1 0x20 DUP2 DUP4 SUB SUB DUP2 MSTORE SWAP1 PUSH1 0x40 MSTORE DUP1 MLOAD SWAP1 PUSH1 0x20 ADD KECCAK256 DUP4 PUSH1 0x40 MLOAD PUSH1 0x20 ADD PUSH2 0x14A3 SWAP2 SWAP1 PUSH2 0x1A3B JUMP JUMPDEST PUSH1 0x40 MLOAD PUSH1 0x20 DUP2 DUP4 SUB SUB DUP2 MSTORE SWAP1 PUSH1 0x40 MSTORE DUP1 MLOAD SWAP1 PUSH1 0x20 ADD KECCAK256 EQ SWAP1 POP SWAP3 SWAP2 POP POP JUMP JUMPDEST PUSH1 0x40 MLOAD DUP1 PUSH2 0x140 ADD PUSH1 0x40 MSTORE DUP1 PUSH1 0x60 DUP2 MSTORE PUSH1 0x20 ADD PUSH1 0x60 DUP2 MSTORE PUSH1 0x20 ADD PUSH1 0x60 DUP2 MSTORE PUSH1 0x20 ADD PUSH1 0x0 DUP2 MSTORE PUSH1 0x20 ADD PUSH1 0x60 DUP2 MSTORE PUSH1 0x20 ADD PUSH1 0x60 DUP2 MSTORE PUSH1 0x20 ADD PUSH1 0x60 DUP2 MSTORE PUSH1 0x20 ADD PUSH1 0x60 DUP2 MSTORE PUSH1 0x20 ADD PUSH1 0x0 DUP2 MSTORE PUSH1 0x20 ADD PUSH1 0x0 DUP2 MSTORE POP SWAP1 JUMP JUMPDEST PUSH4 0x4E487B71 PUSH1 0xE0 SHL PUSH1 0x0 MSTORE PUSH1 0x41 PUSH1 0x4 MSTORE PUSH1 0x24 PUSH1 0x0 REVERT JUMPDEST PUSH1 0x0 DUP3 PUSH1 0x1F DUP4 ADD SLT PUSH2 0x153C JUMPI PUSH1 0x0 DUP1 REVERT JUMPDEST DUP2 CALLDATALOAD PUSH8 0xFFFFFFFFFFFFFFFF DUP1 DUP3 GT ISZERO PUSH2 0x1557 JUMPI PUSH2 0x1557 PUSH2 0x1515 JUMP JUMPDEST PUSH1 0x40 MLOAD PUSH1 0x1F DUP4 ADD PUSH1 0x1F NOT SWAP1 DUP2 AND PUSH1 0x3F ADD AND DUP2 ADD SWAP1 DUP3 DUP3 GT DUP2 DUP4 LT OR ISZERO PUSH2 0x157F JUMPI PUSH2 0x157F PUSH2 0x1515 JUMP JUMPDEST DUP2 PUSH1 0x40 MSTORE DUP4 DUP2 MSTORE DUP7 PUSH1 0x20 DUP6 DUP9 ADD ADD GT ISZERO PUSH2 0x1598 JUMPI PUSH1 0x0 DUP1 REVERT JUMPDEST DUP4 PUSH1 0x20 DUP8 ADD PUSH1 0x20 DUP4 ADD CALLDATACOPY PUSH1 0x0 PUSH1 0x20 DUP6 DUP4 ADD ADD MSTORE DUP1 SWAP5 POP POP POP POP POP SWAP3 SWAP2 POP POP JUMP JUMPDEST PUSH1 0x0 DUP1 PUSH1 0x0 PUSH1 0x60 DUP5 DUP7 SUB SLT ISZERO PUSH2 0x15CD JUMPI PUSH1 0x0 DUP1 REVERT JUMPDEST DUP4 CALLDATALOAD PUSH8 0xFFFFFFFFFFFFFFFF DUP2 GT ISZERO PUSH2 0x15E4 JUMPI PUSH1 0x0 DUP1 REVERT JUMPDEST PUSH2 0x15F0 DUP7 DUP3 DUP8 ADD PUSH2 0x152B JUMP JUMPDEST SWAP7 PUSH1 0x20 DUP7 ADD CALLDATALOAD SWAP7 POP PUSH1 0x40 SWAP1 SWAP6 ADD CALLDATALOAD SWAP5 SWAP4 POP POP POP POP JUMP JUMPDEST PUSH1 0x0 JUMPDEST DUP4 DUP2 LT ISZERO PUSH2 0x1621 JUMPI DUP2 DUP2 ADD MLOAD DUP4 DUP3 ADD MSTORE PUSH1 0x20 ADD PUSH2 0x1609 JUMP JUMPDEST POP POP PUSH1 0x0 SWAP2 ADD MSTORE JUMP JUMPDEST PUSH1 0x0 DUP2 MLOAD DUP1 DUP5 MSTORE PUSH2 0x1642 DUP2 PUSH1 0x20 DUP7 ADD PUSH1 0x20 DUP7 ADD PUSH2 0x1606 JUMP JUMPDEST PUSH1 0x1F ADD PUSH1 0x1F NOT AND SWAP3 SWAP1 SWAP3 ADD PUSH1 0x20 ADD SWAP3 SWAP2 POP POP JUMP JUMPDEST PUSH1 0x0 PUSH1 0x20 DUP1 DUP4 ADD DUP2 DUP5 MSTORE DUP1 DUP6 MLOAD DUP1 DUP4 MSTORE PUSH1 0x40 SWAP3 POP DUP3 DUP7 ADD SWAP2 POP DUP3 DUP2 PUSH1 0x5 SHL DUP8 ADD ADD DUP5 DUP9 ADD PUSH1 0x0 JUMPDEST DUP4 DUP2 LT ISZERO PUSH2 0x1777 JUMPI PUSH1 0x3F NOT DUP10 DUP5 SUB ADD DUP6 MSTORE DUP2 MLOAD PUSH2 0x140 DUP2 MLOAD DUP2 DUP7 MSTORE PUSH2 0x16A4 DUP3 DUP8 ADD DUP3 PUSH2 0x162A JUMP JUMPDEST SWAP2 POP POP DUP9 DUP3 ADD MLOAD DUP6 DUP3 SUB DUP11 DUP8 ADD MSTORE PUSH2 0x16BC DUP3 DUP3 PUSH2 0x162A JUMP JUMPDEST SWAP2 POP POP DUP8 DUP3 ADD MLOAD DUP6 DUP3 SUB DUP10 DUP8 ADD MSTORE PUSH2 0x16D4 DUP3 DUP3 PUSH2 0x162A JUMP JUMPDEST SWAP2 POP POP PUSH1 0x60 DUP1 DUP4 ADD MLOAD DUP2 DUP8 ADD MSTORE POP PUSH1 0x80 DUP1 DUP4 ADD MLOAD DUP7 DUP4 SUB DUP3 DUP9 ADD MSTORE PUSH2 0x16F9 DUP4 DUP3 PUSH2 0x162A JUMP JUMPDEST SWAP3 POP POP POP PUSH1 0xA0 DUP1 DUP4 ADD MLOAD DUP7 DUP4 SUB DUP3 DUP9 ADD MSTORE PUSH2 0x1714 DUP4 DUP3 PUSH2 0x162A JUMP JUMPDEST SWAP3 POP POP POP PUSH1 0xC0 DUP1 DUP4 ADD MLOAD DUP7 DUP4 SUB DUP3 DUP9 ADD MSTORE PUSH2 0x172F DUP4 DUP3 PUSH2 0x162A JUMP JUMPDEST SWAP3 POP POP POP PUSH1 0xE0 DUP1 DUP4 ADD MLOAD DUP7 DUP4 SUB DUP3 DUP9 ADD MSTORE PUSH2 0x174A DUP4 DUP3 PUSH2 0x162A JUMP JUMPDEST PUSH2 0x100 DUP6 DUP2 ADD MLOAD SWAP1 DUP10 ADD MSTORE PUSH2 0x120 SWAP5 DUP6 ADD MLOAD SWAP5 SWAP1 SWAP8 ADD SWAP4 SWAP1 SWAP4 MSTORE POP POP POP SWAP4 DUP7 ADD SWAP4 SWAP1 DUP7 ADD SWAP1 PUSH1 0x1 ADD PUSH2 0x167D JUMP JUMPDEST POP SWAP1 SWAP9 SWAP8 POP POP POP POP POP POP POP POP JUMP JUMPDEST PUSH1 0x0 DUP1 PUSH1 0x0 DUP1 PUSH1 0x0 DUP1 PUSH1 0x0 DUP1 PUSH2 0x100 DUP10 DUP12 SUB SLT ISZERO PUSH2 0x17A2 JUMPI PUSH1 0x0 DUP1 REVERT JUMPDEST DUP9 CALLDATALOAD PUSH8 0xFFFFFFFFFFFFFFFF DUP1 DUP3 GT ISZERO PUSH2 0x17BA JUMPI PUSH1 0x0 DUP1 REVERT JUMPDEST PUSH2 0x17C6 DUP13 DUP4 DUP14 ADD PUSH2 0x152B JUMP JUMPDEST SWAP10 POP PUSH1 0x20 DUP12 ADD CALLDATALOAD SWAP2 POP DUP1 DUP3 GT ISZERO PUSH2 0x17DC JUMPI PUSH1 0x0 DUP1 REVERT JUMPDEST PUSH2 0x17E8 DUP13 DUP4 DUP14 ADD PUSH2 0x152B JUMP JUMPDEST SWAP9 POP PUSH1 0x40 DUP12 ADD CALLDATALOAD SWAP2 POP DUP1 DUP3 GT ISZERO PUSH2 0x17FE JUMPI PUSH1 0x0 DUP1 REVERT JUMPDEST PUSH2 0x180A DUP13 DUP4 DUP14 ADD PUSH2 0x152B JUMP JUMPDEST SWAP8 POP PUSH1 0x60 DUP12 ADD CALLDATALOAD SWAP7 POP PUSH1 0x80 DUP12 ADD CALLDATALOAD SWAP2 POP DUP1 DUP3 GT ISZERO PUSH2 0x1827 JUMPI PUSH1 0x0 DUP1 REVERT JUMPDEST PUSH2 0x1833 DUP13 DUP4 DUP14 ADD PUSH2 0x152B JUMP JUMPDEST SWAP6 POP PUSH1 0xA0 DUP12 ADD CALLDATALOAD SWAP2 POP DUP1 DUP3 GT ISZERO PUSH2 0x1849 JUMPI PUSH1 0x0 DUP1 REVERT JUMPDEST PUSH2 0x1855 DUP13 DUP4 DUP14 ADD PUSH2 0x152B JUMP JUMPDEST SWAP5 POP PUSH1 0xC0 DUP12 ADD CALLDATALOAD SWAP2 POP DUP1 DUP3 GT ISZERO PUSH2 0x186B JUMPI PUSH1 0x0 DUP1 REVERT JUMPDEST PUSH2 0x1877 DUP13 DUP4 DUP14 ADD PUSH2 0x152B JUMP JUMPDEST SWAP4 POP PUSH1 0xE0 DUP12 ADD CALLDATALOAD SWAP2 POP DUP1 DUP3 GT ISZERO PUSH2 0x188D JUMPI PUSH1 0x0 DUP1 REVERT JUMPDEST POP PUSH2 0x189A DUP12 DUP3 DUP13 ADD PUSH2 0x152B JUMP JUMPDEST SWAP2 POP POP SWAP3 SWAP6 SWAP9 POP SWAP3 SWAP6 SWAP9 SWAP1 SWAP4 SWAP7 POP JUMP JUMPDEST PUSH1 0x0 PUSH1 0x20 DUP3 DUP5 SUB SLT ISZERO PUSH2 0x18BC JUMPI PUSH1 0x0 DUP1 REVERT JUMPDEST DUP2 CALLDATALOAD PUSH8 0xFFFFFFFFFFFFFFFF DUP2 GT ISZERO PUSH2 0x18D3 JUMPI PUSH1 0x0 DUP1 REVERT JUMPDEST PUSH2 0x18DF DUP5 DUP3 DUP6 ADD PUSH2 0x152B JUMP JUMPDEST SWAP5 SWAP4 POP POP POP POP JUMP JUMPDEST PUSH1 0x0 DUP1 PUSH1 0x40 DUP4 DUP6 SUB SLT ISZERO PUSH2 0x18FA JUMPI PUSH1 0x0 DUP1 REVERT JUMPDEST POP POP DUP1 CALLDATALOAD SWAP3 PUSH1 0x20 SWAP1 SWAP2 ADD CALLDATALOAD SWAP2 POP JUMP JUMPDEST PUSH4 0x4E487B71 PUSH1 0xE0 SHL PUSH1 0x0 MSTORE PUSH1 0x32 PUSH1 0x4 MSTORE PUSH1 0x24 PUSH1 0x0 REVERT JUMPDEST PUSH1 0x1 DUP2 DUP2 SHR SWAP1 DUP3 AND DUP1 PUSH2 0x1933 JUMPI PUSH1 0x7F DUP3 AND SWAP2 POP JUMPDEST PUSH1 0x20 DUP3 LT DUP2 SUB PUSH2 0x1953 JUMPI PUSH4 0x4E487B71 PUSH1 0xE0 SHL PUSH1 0x0 MSTORE PUSH1 0x22 PUSH1 0x4 MSTORE PUSH1 0x24 PUSH1 0x0 REVERT JUMPDEST POP SWAP2 SWAP1 POP JUMP JUMPDEST PUSH1 0x0 DUP1 DUP4 SLOAD PUSH2 0x1967 DUP2 PUSH2 0x191F JUMP JUMPDEST PUSH1 0x1 DUP3 DUP2 AND DUP1 ISZERO PUSH2 0x197F JUMPI PUSH1 0x1 DUP2 EQ PUSH2 0x1994 JUMPI PUSH2 0x19C3 JUMP JUMPDEST PUSH1 0xFF NOT DUP5 AND DUP8 MSTORE DUP3 ISZERO ISZERO DUP4 MUL DUP8 ADD SWAP5 POP PUSH2 0x19C3 JUMP JUMPDEST DUP8 PUSH1 0x0 MSTORE PUSH1 0x20 DUP1 PUSH1 0x0 KECCAK256 PUSH1 0x0 JUMPDEST DUP6 DUP2 LT ISZERO PUSH2 0x19BA JUMPI DUP2 SLOAD DUP11 DUP3 ADD MSTORE SWAP1 DUP5 ADD SWAP1 DUP3 ADD PUSH2 0x19A1 JUMP JUMPDEST POP POP POP DUP3 DUP8 ADD SWAP5 POP JUMPDEST POP SWAP3 SWAP7 SWAP6 POP POP POP POP POP POP JUMP JUMPDEST PUSH4 0x4E487B71 PUSH1 0xE0 SHL PUSH1 0x0 MSTORE PUSH1 0x11 PUSH1 0x4 MSTORE PUSH1 0x24 PUSH1 0x0 REVERT JUMPDEST PUSH1 0x0 PUSH1 0x1 DUP3 ADD PUSH2 0x19F7 JUMPI PUSH2 0x19F7 PUSH2 0x19CF JUMP JUMPDEST POP PUSH1 0x1 ADD SWAP1 JUMP JUMPDEST DUP1 DUP3 MUL DUP2 ISZERO DUP3 DUP3 DIV DUP5 EQ OR PUSH2 0x1463 JUMPI PUSH2 0x1463 PUSH2 0x19CF JUMP JUMPDEST DUP1 DUP3 ADD DUP1 DUP3 GT ISZERO PUSH2 0x1463 JUMPI PUSH2 0x1463 PUSH2 0x19CF JUMP JUMPDEST DUP2 DUP2 SUB DUP2 DUP2 GT ISZERO PUSH2 0x1463 JUMPI PUSH2 0x1463 PUSH2 0x19CF JUMP JUMPDEST PUSH1 0x0 DUP3 MLOAD PUSH2 0x1A4D DUP2 DUP5 PUSH1 0x20 DUP8 ADD PUSH2 0x1606 JUMP JUMPDEST SWAP2 SWAP1 SWAP2 ADD SWAP3 SWAP2 POP POP JUMP JUMPDEST PUSH1 0x1F DUP3 GT ISZERO PUSH2 0x1AA1 JUMPI PUSH1 0x0 DUP2 DUP2 MSTORE PUSH1 0x20 DUP2 KECCAK256 PUSH1 0x1F DUP6 ADD PUSH1 0x5 SHR DUP2 ADD PUSH1 0x20 DUP7 LT ISZERO PUSH2 0x1A7E JUMPI POP DUP1 JUMPDEST PUSH1 0x1F DUP6 ADD PUSH1 0x5 SHR DUP3 ADD SWAP2 POP JUMPDEST DUP2 DUP2 LT ISZERO PUSH2 0x1A9D JUMPI DUP3 DUP2 SSTORE PUSH1 0x1 ADD PUSH2 0x1A8A JUMP JUMPDEST POP POP POP JUMPDEST POP POP POP JUMP JUMPDEST DUP2 MLOAD PUSH8 0xFFFFFFFFFFFFFFFF DUP2 GT ISZERO PUSH2 0x1AC0 JUMPI PUSH2 0x1AC0 PUSH2 0x1515 JUMP JUMPDEST PUSH2 0x1AD4 DUP2 PUSH2 0x1ACE DUP5 SLOAD PUSH2 0x191F JUMP JUMPDEST DUP5 PUSH2 0x1A57 JUMP JUMPDEST PUSH1 0x20 DUP1 PUSH1 0x1F DUP4 GT PUSH1 0x1 DUP2 EQ PUSH2 0x1B09 JUMPI PUSH1 0x0 DUP5 ISZERO PUSH2 0x1AF1 JUMPI POP DUP6 DUP4 ADD MLOAD JUMPDEST PUSH1 0x0 NOT PUSH1 0x3 DUP7 SWAP1 SHL SHR NOT AND PUSH1 0x1 DUP6 SWAP1 SHL OR DUP6 SSTORE PUSH2 0x1A9D JUMP JUMPDEST PUSH1 0x0 DUP6 DUP2 MSTORE PUSH1 0x20 DUP2 KECCAK256 PUSH1 0x1F NOT DUP7 AND SWAP2 JUMPDEST DUP3 DUP2 LT ISZERO PUSH2 0x1B38 JUMPI DUP9 DUP7 ADD MLOAD DUP3 SSTORE SWAP5 DUP5 ADD SWAP5 PUSH1 0x1 SWAP1 SWAP2 ADD SWAP1 DUP5 ADD PUSH2 0x1B19 JUMP JUMPDEST POP DUP6 DUP3 LT ISZERO PUSH2 0x1B56 JUMPI DUP8 DUP6 ADD MLOAD PUSH1 0x0 NOT PUSH1 0x3 DUP9 SWAP1 SHL PUSH1 0xF8 AND SHR NOT AND DUP2 SSTORE JUMPDEST POP POP POP POP POP PUSH1 0x1 SWAP1 DUP2 SHL ADD SWAP1 SSTORE POP JUMP JUMPDEST PUSH1 0xE0 DUP2 MSTORE PUSH1 0x0 PUSH2 0x1B79 PUSH1 0xE0 DUP4 ADD DUP11 PUSH2 0x162A JUMP JUMPDEST DUP3 DUP2 SUB PUSH1 0x20 DUP5 ADD MSTORE PUSH2 0x1B8B DUP2 DUP11 PUSH2 0x162A JUMP JUMPDEST SWAP1 POP DUP8 PUSH1 0x40 DUP5 ADD MSTORE DUP3 DUP2 SUB PUSH1 0x60 DUP5 ADD MSTORE PUSH2 0x1BA5 DUP2 DUP9 PUSH2 0x162A JUMP JUMPDEST SWAP1 POP DUP3 DUP2 SUB PUSH1 0x80 DUP5 ADD MSTORE PUSH2 0x1BB9 DUP2 DUP8 PUSH2 0x162A JUMP JUMPDEST SWAP1 POP DUP3 DUP2 SUB PUSH1 0xA0 DUP5 ADD MSTORE PUSH2 0x1BCD DUP2 DUP7 PUSH2 0x162A JUMP JUMPDEST SWAP1 POP DUP3 DUP2 SUB PUSH1 0xC0 DUP5 ADD MSTORE PUSH2 0x1BE1 DUP2 DUP6 PUSH2 0x162A JUMP JUMPDEST SWAP11 SWAP10 POP POP POP POP POP POP POP POP POP POP JUMP INVALID LOG2 PUSH5 0x6970667358 0x22 SLT KECCAK256 0xBE 0xE5 0xAE 0xDF 0x2A 0xAB NOT 0xE DUP6 PUSH8 0xC5D04A513DAF19A2 RETURN 0x1E 0xE4 INVALID 0x4D 0xB8 SWAP15 MUL SWAP7 LOG3 EXTCODEHASH DUP11 CREATE 0x5E PUSH5 0x736F6C6343 STOP ADDMOD EQ STOP CALLER "},"methodIdentifiers":{"getAllMetadata(uint256,uint256)":"ac504677","getCountByVisibility(string)":"7f1371b4","getMetadataByVisibility(string,uint256,uint256)":"63fd3b27","getTotalDatasetCount()":"f225d922","storeMetadata(string,string,string,uint256,string,string,string,string)":"78f67f80"}}}}}